{"contracts/EmergencyReliefStablecoin.sol":{"EmergencyReliefStablecoin":{"abi":[{"inputs":[],"stateMutability":"nonpayable","type":"constructor"},{"inputs":[],"name":"AccessControlBadConfirmation","type":"error"},{"inputs":[{"internalType":"address","name":"account","type":"address"},{"internalType":"bytes32","name":"neededRole","type":"bytes32"}],"name":"AccessControlUnauthorizedAccount","type":"error"},{"inputs":[{"internalType":"address","name":"spender","type":"address"},{"internalType":"uint256","name":"allowance","type":"uint256"},{"internalType":"uint256","name":"needed","type":"uint256"}],"name":"ERC20InsufficientAllowance","type":"error"},{"inputs":[{"internalType":"address","name":"sender","type":"address"},{"internalType":"uint256","name":"balance","type":"uint256"},{"internalType":"uint256","name":"needed","type":"uint256"}],"name":"ERC20InsufficientBalance","type":"error"},{"inputs":[{"internalType":"address","name":"approver","type":"address"}],"name":"ERC20InvalidApprover","type":"error"},{"inputs":[{"internalType":"address","name":"receiver","type":"address"}],"name":"ERC20InvalidReceiver","type":"error"},{"inputs":[{"internalType":"address","name":"sender","type":"address"}],"name":"ERC20InvalidSender","type":"error"},{"inputs":[{"internalType":"address","name":"spender","type":"address"}],"name":"ERC20InvalidSpender","type":"error"},{"anonymous":false,"inputs":[{"indexed":true,"internalType":"address","name":"owner","type":"address"},{"indexed":true,"internalType":"address","name":"spender","type":"address"},{"indexed":false,"internalType":"uint256","name":"value","type":"uint256"}],"name":"Approval","type":"event"},{"anonymous":false,"inputs":[{"indexed":true,"internalType":"bytes32","name":"role","type":"bytes32"},{"indexed":true,"internalType":"bytes32","name":"previousAdminRole","type":"bytes32"},{"indexed":true,"internalType":"bytes32","name":"newAdminRole","type":"bytes32"}],"name":"RoleAdminChanged","type":"event"},{"anonymous":false,"inputs":[{"indexed":true,"internalType":"bytes32","name":"role","type":"bytes32"},{"indexed":true,"internalType":"address","name":"account","type":"address"},{"indexed":true,"internalType":"address","name":"sender","type":"address"}],"name":"RoleGranted","type":"event"},{"anonymous":false,"inputs":[{"indexed":true,"internalType":"bytes32","name":"role","type":"bytes32"},{"indexed":true,"internalType":"address","name":"account","type":"address"},{"indexed":true,"internalType":"address","name":"sender","type":"address"}],"name":"RoleRevoked","type":"event"},{"anonymous":false,"inputs":[{"indexed":true,"internalType":"address","name":"from","type":"address"},{"indexed":true,"internalType":"address","name":"to","type":"address"},{"indexed":false,"internalType":"uint256","name":"value","type":"uint256"}],"name":"Transfer","type":"event"},{"inputs":[],"name":"DEFAULT_ADMIN_ROLE","outputs":[{"internalType":"bytes32","name":"","type":"bytes32"}],"stateMutability":"view","type":"function"},{"inputs":[],"name":"MINTER_ROLE","outputs":[{"internalType":"bytes32","name":"","type":"bytes32"}],"stateMutability":"view","type":"function"},{"inputs":[{"internalType":"address","name":"owner","type":"address"},{"internalType":"address","name":"spender","type":"address"}],"name":"allowance","outputs":[{"internalType":"uint256","name":"","type":"uint256"}],"stateMutability":"view","type":"function"},{"inputs":[{"internalType":"address","name":"spender","type":"address"},{"internalType":"uint256","name":"value","type":"uint256"}],"name":"approve","outputs":[{"internalType":"bool","name":"","type":"bool"}],"stateMutability":"nonpayable","type":"function"},{"inputs":[{"internalType":"address","name":"account","type":"address"}],"name":"balanceOf","outputs":[{"internalType":"uint256","name":"","type":"uint256"}],"stateMutability":"view","type":"function"},{"inputs":[{"internalType":"uint256","name":"value","type":"uint256"}],"name":"burn","outputs":[],"stateMutability":"nonpayable","type":"function"},{"inputs":[{"internalType":"address","name":"account","type":"address"},{"internalType":"uint256","name":"value","type":"uint256"}],"name":"burnFrom","outputs":[],"stateMutability":"nonpayable","type":"function"},{"inputs":[],"name":"decimals","outputs":[{"internalType":"uint8","name":"","type":"uint8"}],"stateMutability":"view","type":"function"},{"inputs":[{"internalType":"bytes32","name":"role","type":"bytes32"}],"name":"getRoleAdmin","outputs":[{"internalType":"bytes32","name":"","type":"bytes32"}],"stateMutability":"view","type":"function"},{"inputs":[{"internalType":"bytes32","name":"role","type":"bytes32"},{"internalType":"address","name":"account","type":"address"}],"name":"grantRole","outputs":[],"stateMutability":"nonpayable","type":"function"},{"inputs":[{"internalType":"bytes32","name":"role","type":"bytes32"},{"internalType":"address","name":"account","type":"address"}],"name":"hasRole","outputs":[{"internalType":"bool","name":"","type":"bool"}],"stateMutability":"view","type":"function"},{"inputs":[{"internalType":"address","name":"to","type":"address"},{"internalType":"uint256","name":"amount","type":"uint256"}],"name":"mint","outputs":[],"stateMutability":"nonpayable","type":"function"},{"inputs":[],"name":"name","outputs":[{"internalType":"string","name":"","type":"string"}],"stateMutability":"view","type":"function"},{"inputs":[{"internalType":"bytes32","name":"role","type":"bytes32"},{"internalType":"address","name":"callerConfirmation","type":"address"}],"name":"renounceRole","outputs":[],"stateMutability":"nonpayable","type":"function"},{"inputs":[{"internalType":"bytes32","name":"role","type":"bytes32"},{"internalType":"address","name":"account","type":"address"}],"name":"revokeRole","outputs":[],"stateMutability":"nonpayable","type":"function"},{"inputs":[{"internalType":"bytes4","name":"interfaceId","type":"bytes4"}],"name":"supportsInterface","outputs":[{"internalType":"bool","name":"","type":"bool"}],"stateMutability":"view","type":"function"},{"inputs":[],"name":"symbol","outputs":[{"internalType":"string","name":"","type":"string"}],"stateMutability":"view","type":"function"},{"inputs":[],"name":"totalSupply","outputs":[{"internalType":"uint256","name":"","type":"uint256"}],"stateMutability":"view","type":"function"},{"inputs":[{"internalType":"address","name":"to","type":"address"},{"internalType":"uint256","name":"value","type":"uint256"}],"name":"transfer","outputs":[{"internalType":"bool","name":"","type":"bool"}],"stateMutability":"nonpayable","type":"function"},{"inputs":[{"internalType":"address","name":"from","type":"address"},{"internalType":"address","name":"to","type":"address"},{"internalType":"uint256","name":"value","type":"uint256"}],"name":"transferFrom","outputs":[{"internalType":"bool","name":"","type":"bool"}],"stateMutability":"nonpayable","type":"function"}],"devdoc":{"errors":{"AccessControlBadConfirmation()":[{"details":"The caller of a function is not the expected one. NOTE: Don't confuse with {AccessControlUnauthorizedAccount}."}],"AccessControlUnauthorizedAccount(address,bytes32)":[{"details":"The `account` is missing a role."}],"ERC20InsufficientAllowance(address,uint256,uint256)":[{"details":"Indicates a failure with the `spender`’s `allowance`. Used in transfers.","params":{"allowance":"Amount of tokens a `spender` is allowed to operate with.","needed":"Minimum amount required to perform a transfer.","spender":"Address that may be allowed to operate on tokens without being their owner."}}],"ERC20InsufficientBalance(address,uint256,uint256)":[{"details":"Indicates an error related to the current `balance` of a `sender`. Used in transfers.","params":{"balance":"Current balance for the interacting account.","needed":"Minimum amount required to perform a transfer.","sender":"Address whose tokens are being transferred."}}],"ERC20InvalidApprover(address)":[{"details":"Indicates a failure with the `approver` of a token to be approved. Used in approvals.","params":{"approver":"Address initiating an approval operation."}}],"ERC20InvalidReceiver(address)":[{"details":"Indicates a failure with the token `receiver`. Used in transfers.","params":{"receiver":"Address to which tokens are being transferred."}}],"ERC20InvalidSender(address)":[{"details":"Indicates a failure with the token `sender`. Used in transfers.","params":{"sender":"Address whose tokens are being transferred."}}],"ERC20InvalidSpender(address)":[{"details":"Indicates a failure with the `spender` to be approved. Used in approvals.","params":{"spender":"Address that may be allowed to operate on tokens without being their owner."}}]},"events":{"Approval(address,address,uint256)":{"details":"Emitted when the allowance of a `spender` for an `owner` is set by a call to {approve}. `value` is the new allowance."},"RoleAdminChanged(bytes32,bytes32,bytes32)":{"details":"Emitted when `newAdminRole` is set as ``role``'s admin role, replacing `previousAdminRole` `DEFAULT_ADMIN_ROLE` is the starting admin for all roles, despite {RoleAdminChanged} not being emitted to signal this."},"RoleGranted(bytes32,address,address)":{"details":"Emitted when `account` is granted `role`. `sender` is the account that originated the contract call. This account bears the admin role (for the granted role). Expected in cases where the role was granted using the internal {AccessControl-_grantRole}."},"RoleRevoked(bytes32,address,address)":{"details":"Emitted when `account` is revoked `role`. `sender` is the account that originated the contract call:   - if using `revokeRole`, it is the admin role bearer   - if using `renounceRole`, it is the role bearer (i.e. `account`)"},"Transfer(address,address,uint256)":{"details":"Emitted when `value` tokens are moved from one account (`from`) to another (`to`). Note that `value` may be zero."}},"kind":"dev","methods":{"allowance(address,address)":{"details":"Returns the remaining number of tokens that `spender` will be allowed to spend on behalf of `owner` through {transferFrom}. This is zero by default. This value changes when {approve} or {transferFrom} are called."},"approve(address,uint256)":{"details":"See {IERC20-approve}. NOTE: If `value` is the maximum `uint256`, the allowance is not updated on `transferFrom`. This is semantically equivalent to an infinite approval. Requirements: - `spender` cannot be the zero address."},"balanceOf(address)":{"details":"Returns the value of tokens owned by `account`."},"burn(uint256)":{"details":"Destroys a `value` amount of tokens from the caller. See {ERC20-_burn}."},"burnFrom(address,uint256)":{"details":"Destroys a `value` amount of tokens from `account`, deducting from the caller's allowance. See {ERC20-_burn} and {ERC20-allowance}. Requirements: - the caller must have allowance for ``accounts``'s tokens of at least `value`."},"decimals()":{"details":"Returns the number of decimals used to get its user representation. For example, if `decimals` equals `2`, a balance of `505` tokens should be displayed to a user as `5.05` (`505 / 10 ** 2`). Tokens usually opt for a value of 18, imitating the relationship between Ether and Wei. This is the default value returned by this function, unless it's overridden. NOTE: This information is only used for _display_ purposes: it in no way affects any of the arithmetic of the contract, including {IERC20-balanceOf} and {IERC20-transfer}."},"getRoleAdmin(bytes32)":{"details":"Returns the admin role that controls `role`. See {grantRole} and {revokeRole}. To change a role's admin, use {_setRoleAdmin}."},"grantRole(bytes32,address)":{"details":"Grants `role` to `account`. If `account` had not been already granted `role`, emits a {RoleGranted} event. Requirements: - the caller must have ``role``'s admin role. May emit a {RoleGranted} event."},"hasRole(bytes32,address)":{"details":"Returns `true` if `account` has been granted `role`."},"name()":{"details":"Returns the name of the token."},"renounceRole(bytes32,address)":{"details":"Revokes `role` from the calling account. Roles are often managed via {grantRole} and {revokeRole}: this function's purpose is to provide a mechanism for accounts to lose their privileges if they are compromised (such as when a trusted device is misplaced). If the calling account had been revoked `role`, emits a {RoleRevoked} event. Requirements: - the caller must be `callerConfirmation`. May emit a {RoleRevoked} event."},"revokeRole(bytes32,address)":{"details":"Revokes `role` from `account`. If `account` had been granted `role`, emits a {RoleRevoked} event. Requirements: - the caller must have ``role``'s admin role. May emit a {RoleRevoked} event."},"supportsInterface(bytes4)":{"details":"Returns true if this contract implements the interface defined by `interfaceId`. See the corresponding https://eips.ethereum.org/EIPS/eip-165#how-interfaces-are-identified[ERC section] to learn more about how these ids are created. This function call must use less than 30 000 gas."},"symbol()":{"details":"Returns the symbol of the token, usually a shorter version of the name."},"totalSupply()":{"details":"Returns the value of tokens in existence."},"transfer(address,uint256)":{"details":"See {IERC20-transfer}. Requirements: - `to` cannot be the zero address. - the caller must have a balance of at least `value`."},"transferFrom(address,address,uint256)":{"details":"See {IERC20-transferFrom}. Skips emitting an {Approval} event indicating an allowance update. This is not required by the ERC. See {xref-ERC20-_approve-address-address-uint256-bool-}[_approve]. NOTE: Does not update the allowance if the current allowance is the maximum `uint256`. Requirements: - `from` and `to` cannot be the zero address. - `from` must have a balance of at least `value`. - the caller must have allowance for ``from``'s tokens of at least `value`."}},"version":1},"evm":{"bytecode":{"linkReferences":{},"object":"60806040523480156200001157600080fd5b506040518060400160405280601681526020017f456d657267656e63792052656c69656620546f6b656e00000000000000000000815250604051806040016040528060068152602001652922a624a2a360d11b8152508160039081620000789190620003d3565b506004620000878282620003d3565b506200009991506000905033620000f5565b50620000c67f9f2df0fed2c77648de5860a4cc508cd0818c85b8b8a1ab4ceeef8d981c8956a633620000f5565b50620000ef33620000da6012600a620005b2565b620000e99062989680620005ca565b620001a8565b620005fa565b60008281526005602090815260408083206001600160a01b038516845290915281205460ff166200019e5760008381526005602090815260408083206001600160a01b03861684529091529020805460ff19166001179055620001553390565b6001600160a01b0316826001600160a01b0316847f2f8788117e7eff1d82e926ec794901d17c78024a50270940304540a733656f0d60405160405180910390a4506001620001a2565b5060005b92915050565b6001600160a01b038216620001d85760405163ec442f0560e01b8152600060048201526024015b60405180910390fd5b620001e660008383620001ea565b5050565b620001f7838383620001fc565b505050565b6001600160a01b0383166200022b5780600260008282546200021f9190620005e4565b909155506200029f9050565b6001600160a01b03831660009081526020819052604090205481811015620002805760405163391434e360e21b81526001600160a01b03851660048201526024810182905260448101839052606401620001cf565b6001600160a01b03841660009081526020819052604090209082900390555b6001600160a01b038216620002bd57600280548290039055620002dc565b6001600160a01b03821660009081526020819052604090208054820190555b816001600160a01b0316836001600160a01b03167fddf252ad1be2c89b69c2b068fc378daa952ba7f163c4a11628f55a4df523b3ef836040516200032291815260200190565b60405180910390a3505050565b634e487b7160e01b600052604160045260246000fd5b600181811c908216806200035a57607f821691505b6020821081036200037b57634e487b7160e01b600052602260045260246000fd5b50919050565b601f821115620001f757600081815260208120601f850160051c81016020861015620003aa5750805b601f850160051c820191505b81811015620003cb57828155600101620003b6565b505050505050565b81516001600160401b03811115620003ef57620003ef6200032f565b620004078162000400845462000345565b8462000381565b602080601f8311600181146200043f5760008415620004265750858301515b600019600386901b1c1916600185901b178555620003cb565b600085815260208120601f198616915b8281101562000470578886015182559484019460019091019084016200044f565b50858210156200048f5787850151600019600388901b60f8161c191681555b5050505050600190811b01905550565b634e487b7160e01b600052601160045260246000fd5b600181815b80851115620004f6578160001904821115620004da57620004da6200049f565b80851615620004e857918102915b93841c9390800290620004ba565b509250929050565b6000826200050f57506001620001a2565b816200051e57506000620001a2565b8160018114620005375760028114620005425762000562565b6001915050620001a2565b60ff8411156200055657620005566200049f565b50506001821b620001a2565b5060208310610133831016604e8410600b841016171562000587575081810a620001a2565b620005938383620004b5565b8060001904821115620005aa57620005aa6200049f565b029392505050565b6000620005c360ff841683620004fe565b9392505050565b8082028115828204841417620001a257620001a26200049f565b80820180821115620001a257620001a26200049f565b610bfa806200060a6000396000f3fe608060405234801561001057600080fd5b506004361061012c5760003560e01c806342966c68116100ad578063a217fddf11610071578063a217fddf1461027d578063a9059cbb14610285578063d539139314610298578063d547741f146102bf578063dd62ed3e146102d257600080fd5b806342966c681461021357806370a082311461022657806379cc67901461024f57806391d148541461026257806395d89b411461027557600080fd5b8063248a9ca3116100f4578063248a9ca3146101a65780632f2ff15d146101c9578063313ce567146101de57806336568abe146101ed57806340c10f191461020057600080fd5b806301ffc9a71461013157806306fdde0314610159578063095ea7b31461016e57806318160ddd1461018157806323b872dd14610193575b600080fd5b61014461013f3660046109de565b61030b565b60405190151581526020015b60405180910390f35b610161610342565b6040516101509190610a0f565b61014461017c366004610a79565b6103d4565b6002545b604051908152602001610150565b6101446101a1366004610aa3565b6103ec565b6101856101b4366004610adf565b60009081526005602052604090206001015490565b6101dc6101d7366004610af8565b610410565b005b60405160128152602001610150565b6101dc6101fb366004610af8565b61043b565b6101dc61020e366004610a79565b610473565b6101dc610221366004610adf565b6104a7565b610185610234366004610b24565b6001600160a01b031660009081526020819052604090205490565b6101dc61025d366004610a79565b6104b4565b610144610270366004610af8565b6104cd565b6101616104f8565b610185600081565b610144610293366004610a79565b610507565b6101857f9f2df0fed2c77648de5860a4cc508cd0818c85b8b8a1ab4ceeef8d981c8956a681565b6101dc6102cd366004610af8565b610515565b6101856102e0366004610b3f565b6001600160a01b03918216600090815260016020908152604080832093909416825291909152205490565b60006001600160e01b03198216637965db0b60e01b148061033c57506301ffc9a760e01b6001600160e01b03198316145b92915050565b60606003805461035190610b69565b80601f016020809104026020016040519081016040528092919081815260200182805461037d90610b69565b80156103ca5780601f1061039f576101008083540402835291602001916103ca565b820191906000526020600020905b8154815290600101906020018083116103ad57829003601f168201915b5050505050905090565b6000336103e281858561053a565b5060019392505050565b6000336103fa858285610547565b6104058585856105c5565b506001949350505050565b60008281526005602052604090206001015461042b81610624565b610435838361062e565b50505050565b6001600160a01b03811633146104645760405163334bd91960e11b815260040160405180910390fd5b61046e82826106c2565b505050565b7f9f2df0fed2c77648de5860a4cc508cd0818c85b8b8a1ab4ceeef8d981c8956a661049d81610624565b61046e838361072f565b6104b13382610765565b50565b6104bf823383610547565b6104c98282610765565b5050565b60009182526005602090815260408084206001600160a01b0393909316845291905290205460ff1690565b60606004805461035190610b69565b6000336103e28185856105c5565b60008281526005602052604090206001015461053081610624565b61043583836106c2565b61046e838383600161079b565b6001600160a01b0383811660009081526001602090815260408083209386168352929052205460001981101561043557818110156105b657604051637dc7a0d960e11b81526001600160a01b038416600482015260248101829052604481018390526064015b60405180910390fd5b6104358484848403600061079b565b6001600160a01b0383166105ef57604051634b637e8f60e11b8152600060048201526024016105ad565b6001600160a01b0382166106195760405163ec442f0560e01b8152600060048201526024016105ad565b61046e838383610870565b6104b1813361087b565b600061063a83836104cd565b6106ba5760008381526005602090815260408083206001600160a01b03861684529091529020805460ff191660011790556106723390565b6001600160a01b0316826001600160a01b0316847f2f8788117e7eff1d82e926ec794901d17c78024a50270940304540a733656f0d60405160405180910390a450600161033c565b50600061033c565b60006106ce83836104cd565b156106ba5760008381526005602090815260408083206001600160a01b0386168085529252808320805460ff1916905551339286917ff6391f5c32d9c69d2a47ea670b442974b53935d1edc7fd64eb21e047a839171b9190a450600161033c565b6001600160a01b0382166107595760405163ec442f0560e01b8152600060048201526024016105ad565b6104c960008383610870565b6001600160a01b03821661078f57604051634b637e8f60e11b8152600060048201526024016105ad565b6104c982600083610870565b6001600160a01b0384166107c55760405163e602df0560e01b8152600060048201526024016105ad565b6001600160a01b0383166107ef57604051634a1406b160e11b8152600060048201526024016105ad565b6001600160a01b038085166000908152600160209081526040808320938716835292905220829055801561043557826001600160a01b0316846001600160a01b03167f8c5be1e5ebec7d5bd14f71427d1e84f3dd0314c0f7b2291e5b200ac8c7c3b9258460405161086291815260200190565b60405180910390a350505050565b61046e8383836108b4565b61088582826104cd565b6104c95760405163e2517d3f60e01b81526001600160a01b0382166004820152602481018390526044016105ad565b6001600160a01b0383166108df5780600260008282546108d49190610ba3565b909155506109519050565b6001600160a01b038316600090815260208190526040902054818110156109325760405163391434e360e21b81526001600160a01b038516600482015260248101829052604481018390526064016105ad565b6001600160a01b03841660009081526020819052604090209082900390555b6001600160a01b03821661096d5760028054829003905561098c565b6001600160a01b03821660009081526020819052604090208054820190555b816001600160a01b0316836001600160a01b03167fddf252ad1be2c89b69c2b068fc378daa952ba7f163c4a11628f55a4df523b3ef836040516109d191815260200190565b60405180910390a3505050565b6000602082840312156109f057600080fd5b81356001600160e01b031981168114610a0857600080fd5b9392505050565b600060208083528351808285015260005b81811015610a3c57858101830151858201604001528201610a20565b506000604082860101526040601f19601f8301168501019250505092915050565b80356001600160a01b0381168114610a7457600080fd5b919050565b60008060408385031215610a8c57600080fd5b610a9583610a5d565b946020939093013593505050565b600080600060608486031215610ab857600080fd5b610ac184610a5d565b9250610acf60208501610a5d565b9150604084013590509250925092565b600060208284031215610af157600080fd5b5035919050565b60008060408385031215610b0b57600080fd5b82359150610b1b60208401610a5d565b90509250929050565b600060208284031215610b3657600080fd5b610a0882610a5d565b60008060408385031215610b5257600080fd5b610b5b83610a5d565b9150610b1b60208401610a5d565b600181811c90821680610b7d57607f821691505b602082108103610b9d57634e487b7160e01b600052602260045260246000fd5b50919050565b8082018082111561033c57634e487b7160e01b600052601160045260246000fdfea26469706673582212200031ec8f980ad2adbc6f3d3419eee2370bf38ae5c01ba96719d8e26f1f7bd68664736f6c63430008140033","opcodes":"PUSH1 0x80 PUSH1 0x40 MSTORE CALLVALUE DUP1 ISZERO PUSH3 0x11 JUMPI PUSH1 0x0 DUP1 REVERT JUMPDEST POP PUSH1 0x40 MLOAD DUP1 PUSH1 0x40 ADD PUSH1 0x40 MSTORE DUP1 PUSH1 0x16 DUP2 MSTORE PUSH1 0x20 ADD PUSH32 0x456D657267656E63792052656C69656620546F6B656E00000000000000000000 DUP2 MSTORE POP PUSH1 0x40 MLOAD DUP1 PUSH1 0x40 ADD PUSH1 0x40 MSTORE DUP1 PUSH1 0x6 DUP2 MSTORE PUSH1 0x20 ADD PUSH6 0x2922A624A2A3 PUSH1 0xD1 SHL DUP2 MSTORE POP DUP2 PUSH1 0x3 SWAP1 DUP2 PUSH3 0x78 SWAP2 SWAP1 PUSH3 0x3D3 JUMP JUMPDEST POP PUSH1 0x4 PUSH3 0x87 DUP3 DUP3 PUSH3 0x3D3 JUMP JUMPDEST POP PUSH3 0x99 SWAP2 POP PUSH1 0x0 SWAP1 POP CALLER PUSH3 0xF5 JUMP JUMPDEST POP PUSH3 0xC6 PUSH32 0x9F2DF0FED2C77648DE5860A4CC508CD0818C85B8B8A1AB4CEEEF8D981C8956A6 CALLER PUSH3 0xF5 JUMP JUMPDEST POP PUSH3 0xEF CALLER PUSH3 0xDA PUSH1 0x12 PUSH1 0xA PUSH3 0x5B2 JUMP JUMPDEST PUSH3 0xE9 SWAP1 PUSH3 0x989680 PUSH3 0x5CA JUMP JUMPDEST PUSH3 0x1A8 JUMP JUMPDEST PUSH3 0x5FA JUMP JUMPDEST PUSH1 0x0 DUP3 DUP2 MSTORE PUSH1 0x5 PUSH1 0x20 SWAP1 DUP2 MSTORE PUSH1 0x40 DUP1 DUP4 KECCAK256 PUSH1 0x1 PUSH1 0x1 PUSH1 0xA0 SHL SUB DUP6 AND DUP5 MSTORE SWAP1 SWAP2 MSTORE DUP2 KECCAK256 SLOAD PUSH1 0xFF AND PUSH3 0x19E JUMPI PUSH1 0x0 DUP4 DUP2 MSTORE PUSH1 0x5 PUSH1 0x20 SWAP1 DUP2 MSTORE PUSH1 0x40 DUP1 DUP4 KECCAK256 PUSH1 0x1 PUSH1 0x1 PUSH1 0xA0 SHL SUB DUP7 AND DUP5 MSTORE SWAP1 SWAP2 MSTORE SWAP1 KECCAK256 DUP1 SLOAD PUSH1 0xFF NOT AND PUSH1 0x1 OR SWAP1 SSTORE PUSH3 0x155 CALLER SWAP1 JUMP JUMPDEST PUSH1 0x1 PUSH1 0x1 PUSH1 0xA0 SHL SUB AND DUP3 PUSH1 0x1 PUSH1 0x1 PUSH1 0xA0 SHL SUB AND DUP5 PUSH32 0x2F8788117E7EFF1D82E926EC794901D17C78024A50270940304540A733656F0D PUSH1 0x40 MLOAD PUSH1 0x40 MLOAD DUP1 SWAP2 SUB SWAP1 LOG4 POP PUSH1 0x1 PUSH3 0x1A2 JUMP JUMPDEST POP PUSH1 0x0 JUMPDEST SWAP3 SWAP2 POP POP JUMP JUMPDEST PUSH1 0x1 PUSH1 0x1 PUSH1 0xA0 SHL SUB DUP3 AND PUSH3 0x1D8 JUMPI PUSH1 0x40 MLOAD PUSH4 0xEC442F05 PUSH1 0xE0 SHL DUP2 MSTORE PUSH1 0x0 PUSH1 0x4 DUP3 ADD MSTORE PUSH1 0x24 ADD JUMPDEST PUSH1 0x40 MLOAD DUP1 SWAP2 SUB SWAP1 REVERT JUMPDEST PUSH3 0x1E6 PUSH1 0x0 DUP4 DUP4 PUSH3 0x1EA JUMP JUMPDEST POP POP JUMP JUMPDEST PUSH3 0x1F7 DUP4 DUP4 DUP4 PUSH3 0x1FC JUMP JUMPDEST POP POP POP JUMP JUMPDEST PUSH1 0x1 PUSH1 0x1 PUSH1 0xA0 SHL SUB DUP4 AND PUSH3 0x22B JUMPI DUP1 PUSH1 0x2 PUSH1 0x0 DUP3 DUP3 SLOAD PUSH3 0x21F SWAP2 SWAP1 PUSH3 0x5E4 JUMP JUMPDEST SWAP1 SWAP2 SSTORE POP PUSH3 0x29F SWAP1 POP JUMP JUMPDEST PUSH1 0x1 PUSH1 0x1 PUSH1 0xA0 SHL SUB DUP4 AND PUSH1 0x0 SWAP1 DUP2 MSTORE PUSH1 0x20 DUP2 SWAP1 MSTORE PUSH1 0x40 SWAP1 KECCAK256 SLOAD DUP2 DUP2 LT ISZERO PUSH3 0x280 JUMPI PUSH1 0x40 MLOAD PUSH4 0x391434E3 PUSH1 0xE2 SHL DUP2 MSTORE PUSH1 0x1 PUSH1 0x1 PUSH1 0xA0 SHL SUB DUP6 AND PUSH1 0x4 DUP3 ADD MSTORE PUSH1 0x24 DUP2 ADD DUP3 SWAP1 MSTORE PUSH1 0x44 DUP2 ADD DUP4 SWAP1 MSTORE PUSH1 0x64 ADD PUSH3 0x1CF JUMP JUMPDEST PUSH1 0x1 PUSH1 0x1 PUSH1 0xA0 SHL SUB DUP5 AND PUSH1 0x0 SWAP1 DUP2 MSTORE PUSH1 0x20 DUP2 SWAP1 MSTORE PUSH1 0x40 SWAP1 KECCAK256 SWAP1 DUP3 SWAP1 SUB SWAP1 SSTORE JUMPDEST PUSH1 0x1 PUSH1 0x1 PUSH1 0xA0 SHL SUB DUP3 AND PUSH3 0x2BD JUMPI PUSH1 0x2 DUP1 SLOAD DUP3 SWAP1 SUB SWAP1 SSTORE PUSH3 0x2DC JUMP JUMPDEST PUSH1 0x1 PUSH1 0x1 PUSH1 0xA0 SHL SUB DUP3 AND PUSH1 0x0 SWAP1 DUP2 MSTORE PUSH1 0x20 DUP2 SWAP1 MSTORE PUSH1 0x40 SWAP1 KECCAK256 DUP1 SLOAD DUP3 ADD SWAP1 SSTORE JUMPDEST DUP2 PUSH1 0x1 PUSH1 0x1 PUSH1 0xA0 SHL SUB AND DUP4 PUSH1 0x1 PUSH1 0x1 PUSH1 0xA0 SHL SUB AND PUSH32 0xDDF252AD1BE2C89B69C2B068FC378DAA952BA7F163C4A11628F55A4DF523B3EF DUP4 PUSH1 0x40 MLOAD PUSH3 0x322 SWAP2 DUP2 MSTORE PUSH1 0x20 ADD SWAP1 JUMP JUMPDEST PUSH1 0x40 MLOAD DUP1 SWAP2 SUB SWAP1 LOG3 POP POP POP JUMP JUMPDEST PUSH4 0x4E487B71 PUSH1 0xE0 SHL PUSH1 0x0 MSTORE PUSH1 0x41 PUSH1 0x4 MSTORE PUSH1 0x24 PUSH1 0x0 REVERT JUMPDEST PUSH1 0x1 DUP2 DUP2 SHR SWAP1 DUP3 AND DUP1 PUSH3 0x35A JUMPI PUSH1 0x7F DUP3 AND SWAP2 POP JUMPDEST PUSH1 0x20 DUP3 LT DUP2 SUB PUSH3 0x37B JUMPI PUSH4 0x4E487B71 PUSH1 0xE0 SHL PUSH1 0x0 MSTORE PUSH1 0x22 PUSH1 0x4 MSTORE PUSH1 0x24 PUSH1 0x0 REVERT JUMPDEST POP SWAP2 SWAP1 POP JUMP JUMPDEST PUSH1 0x1F DUP3 GT ISZERO PUSH3 0x1F7 JUMPI PUSH1 0x0 DUP2 DUP2 MSTORE PUSH1 0x20 DUP2 KECCAK256 PUSH1 0x1F DUP6 ADD PUSH1 0x5 SHR DUP2 ADD PUSH1 0x20 DUP7 LT ISZERO PUSH3 0x3AA JUMPI POP DUP1 JUMPDEST PUSH1 0x1F DUP6 ADD PUSH1 0x5 SHR DUP3 ADD SWAP2 POP JUMPDEST DUP2 DUP2 LT ISZERO PUSH3 0x3CB JUMPI DUP3 DUP2 SSTORE PUSH1 0x1 ADD PUSH3 0x3B6 JUMP JUMPDEST POP POP POP POP POP POP JUMP JUMPDEST DUP2 MLOAD PUSH1 0x1 PUSH1 0x1 PUSH1 0x40 SHL SUB DUP2 GT ISZERO PUSH3 0x3EF JUMPI PUSH3 0x3EF PUSH3 0x32F JUMP JUMPDEST PUSH3 0x407 DUP2 PUSH3 0x400 DUP5 SLOAD PUSH3 0x345 JUMP JUMPDEST DUP5 PUSH3 0x381 JUMP JUMPDEST PUSH1 0x20 DUP1 PUSH1 0x1F DUP4 GT PUSH1 0x1 DUP2 EQ PUSH3 0x43F JUMPI PUSH1 0x0 DUP5 ISZERO PUSH3 0x426 JUMPI POP DUP6 DUP4 ADD MLOAD JUMPDEST PUSH1 0x0 NOT PUSH1 0x3 DUP7 SWAP1 SHL SHR NOT AND PUSH1 0x1 DUP6 SWAP1 SHL OR DUP6 SSTORE PUSH3 0x3CB JUMP JUMPDEST PUSH1 0x0 DUP6 DUP2 MSTORE PUSH1 0x20 DUP2 KECCAK256 PUSH1 0x1F NOT DUP7 AND SWAP2 JUMPDEST DUP3 DUP2 LT ISZERO PUSH3 0x470 JUMPI DUP9 DUP7 ADD MLOAD DUP3 SSTORE SWAP5 DUP5 ADD SWAP5 PUSH1 0x1 SWAP1 SWAP2 ADD SWAP1 DUP5 ADD PUSH3 0x44F JUMP JUMPDEST POP DUP6 DUP3 LT ISZERO PUSH3 0x48F JUMPI DUP8 DUP6 ADD MLOAD PUSH1 0x0 NOT PUSH1 0x3 DUP9 SWAP1 SHL PUSH1 0xF8 AND SHR NOT AND DUP2 SSTORE JUMPDEST POP POP POP POP POP PUSH1 0x1 SWAP1 DUP2 SHL ADD SWAP1 SSTORE POP JUMP JUMPDEST PUSH4 0x4E487B71 PUSH1 0xE0 SHL PUSH1 0x0 MSTORE PUSH1 0x11 PUSH1 0x4 MSTORE PUSH1 0x24 PUSH1 0x0 REVERT JUMPDEST PUSH1 0x1 DUP2 DUP2 JUMPDEST DUP1 DUP6 GT ISZERO PUSH3 0x4F6 JUMPI DUP2 PUSH1 0x0 NOT DIV DUP3 GT ISZERO PUSH3 0x4DA JUMPI PUSH3 0x4DA PUSH3 0x49F JUMP JUMPDEST DUP1 DUP6 AND ISZERO PUSH3 0x4E8 JUMPI SWAP2 DUP2 MUL SWAP2 JUMPDEST SWAP4 DUP5 SHR SWAP4 SWAP1 DUP1 MUL SWAP1 PUSH3 0x4BA JUMP JUMPDEST POP SWAP3 POP SWAP3 SWAP1 POP JUMP JUMPDEST PUSH1 0x0 DUP3 PUSH3 0x50F JUMPI POP PUSH1 0x1 PUSH3 0x1A2 JUMP JUMPDEST DUP2 PUSH3 0x51E JUMPI POP PUSH1 0x0 PUSH3 0x1A2 JUMP JUMPDEST DUP2 PUSH1 0x1 DUP2 EQ PUSH3 0x537 JUMPI PUSH1 0x2 DUP2 EQ PUSH3 0x542 JUMPI PUSH3 0x562 JUMP JUMPDEST PUSH1 0x1 SWAP2 POP POP PUSH3 0x1A2 JUMP JUMPDEST PUSH1 0xFF DUP5 GT ISZERO PUSH3 0x556 JUMPI PUSH3 0x556 PUSH3 0x49F JUMP JUMPDEST POP POP PUSH1 0x1 DUP3 SHL PUSH3 0x1A2 JUMP JUMPDEST POP PUSH1 0x20 DUP4 LT PUSH2 0x133 DUP4 LT AND PUSH1 0x4E DUP5 LT PUSH1 0xB DUP5 LT AND OR ISZERO PUSH3 0x587 JUMPI POP DUP2 DUP2 EXP PUSH3 0x1A2 JUMP JUMPDEST PUSH3 0x593 DUP4 DUP4 PUSH3 0x4B5 JUMP JUMPDEST DUP1 PUSH1 0x0 NOT DIV DUP3 GT ISZERO PUSH3 0x5AA JUMPI PUSH3 0x5AA PUSH3 0x49F JUMP JUMPDEST MUL SWAP4 SWAP3 POP POP POP JUMP JUMPDEST PUSH1 0x0 PUSH3 0x5C3 PUSH1 0xFF DUP5 AND DUP4 PUSH3 0x4FE JUMP JUMPDEST SWAP4 SWAP3 POP POP POP JUMP JUMPDEST DUP1 DUP3 MUL DUP2 ISZERO DUP3 DUP3 DIV DUP5 EQ OR PUSH3 0x1A2 JUMPI PUSH3 0x1A2 PUSH3 0x49F JUMP JUMPDEST DUP1 DUP3 ADD DUP1 DUP3 GT ISZERO PUSH3 0x1A2 JUMPI PUSH3 0x1A2 PUSH3 0x49F JUMP JUMPDEST PUSH2 0xBFA DUP1 PUSH3 0x60A PUSH1 0x0 CODECOPY PUSH1 0x0 RETURN INVALID PUSH1 0x80 PUSH1 0x40 MSTORE CALLVALUE DUP1 ISZERO PUSH2 0x10 JUMPI PUSH1 0x0 DUP1 REVERT JUMPDEST POP PUSH1 0x4 CALLDATASIZE LT PUSH2 0x12C JUMPI PUSH1 0x0 CALLDATALOAD PUSH1 0xE0 SHR DUP1 PUSH4 0x42966C68 GT PUSH2 0xAD JUMPI DUP1 PUSH4 0xA217FDDF GT PUSH2 0x71 JUMPI DUP1 PUSH4 0xA217FDDF EQ PUSH2 0x27D JUMPI DUP1 PUSH4 0xA9059CBB EQ PUSH2 0x285 JUMPI DUP1 PUSH4 0xD5391393 EQ PUSH2 0x298 JUMPI DUP1 PUSH4 0xD547741F EQ PUSH2 0x2BF JUMPI DUP1 PUSH4 0xDD62ED3E EQ PUSH2 0x2D2 JUMPI PUSH1 0x0 DUP1 REVERT JUMPDEST DUP1 PUSH4 0x42966C68 EQ PUSH2 0x213 JUMPI DUP1 PUSH4 0x70A08231 EQ PUSH2 0x226 JUMPI DUP1 PUSH4 0x79CC6790 EQ PUSH2 0x24F JUMPI DUP1 PUSH4 0x91D14854 EQ PUSH2 0x262 JUMPI DUP1 PUSH4 0x95D89B41 EQ PUSH2 0x275 JUMPI PUSH1 0x0 DUP1 REVERT JUMPDEST DUP1 PUSH4 0x248A9CA3 GT PUSH2 0xF4 JUMPI DUP1 PUSH4 0x248A9CA3 EQ PUSH2 0x1A6 JUMPI DUP1 PUSH4 0x2F2FF15D EQ PUSH2 0x1C9 JUMPI DUP1 PUSH4 0x313CE567 EQ PUSH2 0x1DE JUMPI DUP1 PUSH4 0x36568ABE EQ PUSH2 0x1ED JUMPI DUP1 PUSH4 0x40C10F19 EQ PUSH2 0x200 JUMPI PUSH1 0x0 DUP1 REVERT JUMPDEST DUP1 PUSH4 0x1FFC9A7 EQ PUSH2 0x131 JUMPI DUP1 PUSH4 0x6FDDE03 EQ PUSH2 0x159 JUMPI DUP1 PUSH4 0x95EA7B3 EQ PUSH2 0x16E JUMPI DUP1 PUSH4 0x18160DDD EQ PUSH2 0x181 JUMPI DUP1 PUSH4 0x23B872DD EQ PUSH2 0x193 JUMPI JUMPDEST PUSH1 0x0 DUP1 REVERT JUMPDEST PUSH2 0x144 PUSH2 0x13F CALLDATASIZE PUSH1 0x4 PUSH2 0x9DE JUMP JUMPDEST PUSH2 0x30B JUMP JUMPDEST PUSH1 0x40 MLOAD SWAP1 ISZERO ISZERO DUP2 MSTORE PUSH1 0x20 ADD JUMPDEST PUSH1 0x40 MLOAD DUP1 SWAP2 SUB SWAP1 RETURN JUMPDEST PUSH2 0x161 PUSH2 0x342 JUMP JUMPDEST PUSH1 0x40 MLOAD PUSH2 0x150 SWAP2 SWAP1 PUSH2 0xA0F JUMP JUMPDEST PUSH2 0x144 PUSH2 0x17C CALLDATASIZE PUSH1 0x4 PUSH2 0xA79 JUMP JUMPDEST PUSH2 0x3D4 JUMP JUMPDEST PUSH1 0x2 SLOAD JUMPDEST PUSH1 0x40 MLOAD SWAP1 DUP2 MSTORE PUSH1 0x20 ADD PUSH2 0x150 JUMP JUMPDEST PUSH2 0x144 PUSH2 0x1A1 CALLDATASIZE PUSH1 0x4 PUSH2 0xAA3 JUMP JUMPDEST PUSH2 0x3EC JUMP JUMPDEST PUSH2 0x185 PUSH2 0x1B4 CALLDATASIZE PUSH1 0x4 PUSH2 0xADF JUMP JUMPDEST PUSH1 0x0 SWAP1 DUP2 MSTORE PUSH1 0x5 PUSH1 0x20 MSTORE PUSH1 0x40 SWAP1 KECCAK256 PUSH1 0x1 ADD SLOAD SWAP1 JUMP JUMPDEST PUSH2 0x1DC PUSH2 0x1D7 CALLDATASIZE PUSH1 0x4 PUSH2 0xAF8 JUMP JUMPDEST PUSH2 0x410 JUMP JUMPDEST STOP JUMPDEST PUSH1 0x40 MLOAD PUSH1 0x12 DUP2 MSTORE PUSH1 0x20 ADD PUSH2 0x150 JUMP JUMPDEST PUSH2 0x1DC PUSH2 0x1FB CALLDATASIZE PUSH1 0x4 PUSH2 0xAF8 JUMP JUMPDEST PUSH2 0x43B JUMP JUMPDEST PUSH2 0x1DC PUSH2 0x20E CALLDATASIZE PUSH1 0x4 PUSH2 0xA79 JUMP JUMPDEST PUSH2 0x473 JUMP JUMPDEST PUSH2 0x1DC PUSH2 0x221 CALLDATASIZE PUSH1 0x4 PUSH2 0xADF JUMP JUMPDEST PUSH2 0x4A7 JUMP JUMPDEST PUSH2 0x185 PUSH2 0x234 CALLDATASIZE PUSH1 0x4 PUSH2 0xB24 JUMP JUMPDEST PUSH1 0x1 PUSH1 0x1 PUSH1 0xA0 SHL SUB AND PUSH1 0x0 SWAP1 DUP2 MSTORE PUSH1 0x20 DUP2 SWAP1 MSTORE PUSH1 0x40 SWAP1 KECCAK256 SLOAD SWAP1 JUMP JUMPDEST PUSH2 0x1DC PUSH2 0x25D CALLDATASIZE PUSH1 0x4 PUSH2 0xA79 JUMP JUMPDEST PUSH2 0x4B4 JUMP JUMPDEST PUSH2 0x144 PUSH2 0x270 CALLDATASIZE PUSH1 0x4 PUSH2 0xAF8 JUMP JUMPDEST PUSH2 0x4CD JUMP JUMPDEST PUSH2 0x161 PUSH2 0x4F8 JUMP JUMPDEST PUSH2 0x185 PUSH1 0x0 DUP2 JUMP JUMPDEST PUSH2 0x144 PUSH2 0x293 CALLDATASIZE PUSH1 0x4 PUSH2 0xA79 JUMP JUMPDEST PUSH2 0x507 JUMP JUMPDEST PUSH2 0x185 PUSH32 0x9F2DF0FED2C77648DE5860A4CC508CD0818C85B8B8A1AB4CEEEF8D981C8956A6 DUP2 JUMP JUMPDEST PUSH2 0x1DC PUSH2 0x2CD CALLDATASIZE PUSH1 0x4 PUSH2 0xAF8 JUMP JUMPDEST PUSH2 0x515 JUMP JUMPDEST PUSH2 0x185 PUSH2 0x2E0 CALLDATASIZE PUSH1 0x4 PUSH2 0xB3F JUMP JUMPDEST PUSH1 0x1 PUSH1 0x1 PUSH1 0xA0 SHL SUB SWAP2 DUP3 AND PUSH1 0x0 SWAP1 DUP2 MSTORE PUSH1 0x1 PUSH1 0x20 SWAP1 DUP2 MSTORE PUSH1 0x40 DUP1 DUP4 KECCAK256 SWAP4 SWAP1 SWAP5 AND DUP3 MSTORE SWAP2 SWAP1 SWAP2 MSTORE KECCAK256 SLOAD SWAP1 JUMP JUMPDEST PUSH1 0x0 PUSH1 0x1 PUSH1 0x1 PUSH1 0xE0 SHL SUB NOT DUP3 AND PUSH4 0x7965DB0B PUSH1 0xE0 SHL EQ DUP1 PUSH2 0x33C JUMPI POP PUSH4 0x1FFC9A7 PUSH1 0xE0 SHL PUSH1 0x1 PUSH1 0x1 PUSH1 0xE0 SHL SUB NOT DUP4 AND EQ JUMPDEST SWAP3 SWAP2 POP POP JUMP JUMPDEST PUSH1 0x60 PUSH1 0x3 DUP1 SLOAD PUSH2 0x351 SWAP1 PUSH2 0xB69 JUMP JUMPDEST DUP1 PUSH1 0x1F ADD PUSH1 0x20 DUP1 SWAP2 DIV MUL PUSH1 0x20 ADD PUSH1 0x40 MLOAD SWAP1 DUP2 ADD PUSH1 0x40 MSTORE DUP1 SWAP3 SWAP2 SWAP1 DUP2 DUP2 MSTORE PUSH1 0x20 ADD DUP3 DUP1 SLOAD PUSH2 0x37D SWAP1 PUSH2 0xB69 JUMP JUMPDEST DUP1 ISZERO PUSH2 0x3CA JUMPI DUP1 PUSH1 0x1F LT PUSH2 0x39F JUMPI PUSH2 0x100 DUP1 DUP4 SLOAD DIV MUL DUP4 MSTORE SWAP2 PUSH1 0x20 ADD SWAP2 PUSH2 0x3CA JUMP JUMPDEST DUP3 ADD SWAP2 SWAP1 PUSH1 0x0 MSTORE PUSH1 0x20 PUSH1 0x0 KECCAK256 SWAP1 JUMPDEST DUP2 SLOAD DUP2 MSTORE SWAP1 PUSH1 0x1 ADD SWAP1 PUSH1 0x20 ADD DUP1 DUP4 GT PUSH2 0x3AD JUMPI DUP3 SWAP1 SUB PUSH1 0x1F AND DUP3 ADD SWAP2 JUMPDEST POP POP POP POP POP SWAP1 POP SWAP1 JUMP JUMPDEST PUSH1 0x0 CALLER PUSH2 0x3E2 DUP2 DUP6 DUP6 PUSH2 0x53A JUMP JUMPDEST POP PUSH1 0x1 SWAP4 SWAP3 POP POP POP JUMP JUMPDEST PUSH1 0x0 CALLER PUSH2 0x3FA DUP6 DUP3 DUP6 PUSH2 0x547 JUMP JUMPDEST PUSH2 0x405 DUP6 DUP6 DUP6 PUSH2 0x5C5 JUMP JUMPDEST POP PUSH1 0x1 SWAP5 SWAP4 POP POP POP POP JUMP JUMPDEST PUSH1 0x0 DUP3 DUP2 MSTORE PUSH1 0x5 PUSH1 0x20 MSTORE PUSH1 0x40 SWAP1 KECCAK256 PUSH1 0x1 ADD SLOAD PUSH2 0x42B DUP2 PUSH2 0x624 JUMP JUMPDEST PUSH2 0x435 DUP4 DUP4 PUSH2 0x62E JUMP JUMPDEST POP POP POP POP JUMP JUMPDEST PUSH1 0x1 PUSH1 0x1 PUSH1 0xA0 SHL SUB DUP2 AND CALLER EQ PUSH2 0x464 JUMPI PUSH1 0x40 MLOAD PUSH4 0x334BD919 PUSH1 0xE1 SHL DUP2 MSTORE PUSH1 0x4 ADD PUSH1 0x40 MLOAD DUP1 SWAP2 SUB SWAP1 REVERT JUMPDEST PUSH2 0x46E DUP3 DUP3 PUSH2 0x6C2 JUMP JUMPDEST POP POP POP JUMP JUMPDEST PUSH32 0x9F2DF0FED2C77648DE5860A4CC508CD0818C85B8B8A1AB4CEEEF8D981C8956A6 PUSH2 0x49D DUP2 PUSH2 0x624 JUMP JUMPDEST PUSH2 0x46E DUP4 DUP4 PUSH2 0x72F JUMP JUMPDEST PUSH2 0x4B1 CALLER DUP3 PUSH2 0x765 JUMP JUMPDEST POP JUMP JUMPDEST PUSH2 0x4BF DUP3 CALLER DUP4 PUSH2 0x547 JUMP JUMPDEST PUSH2 0x4C9 DUP3 DUP3 PUSH2 0x765 JUMP JUMPDEST POP POP JUMP JUMPDEST PUSH1 0x0 SWAP2 DUP3 MSTORE PUSH1 0x5 PUSH1 0x20 SWAP1 DUP2 MSTORE PUSH1 0x40 DUP1 DUP5 KECCAK256 PUSH1 0x1 PUSH1 0x1 PUSH1 0xA0 SHL SUB SWAP4 SWAP1 SWAP4 AND DUP5 MSTORE SWAP2 SWAP1 MSTORE SWAP1 KECCAK256 SLOAD PUSH1 0xFF AND SWAP1 JUMP JUMPDEST PUSH1 0x60 PUSH1 0x4 DUP1 SLOAD PUSH2 0x351 SWAP1 PUSH2 0xB69 JUMP JUMPDEST PUSH1 0x0 CALLER PUSH2 0x3E2 DUP2 DUP6 DUP6 PUSH2 0x5C5 JUMP JUMPDEST PUSH1 0x0 DUP3 DUP2 MSTORE PUSH1 0x5 PUSH1 0x20 MSTORE PUSH1 0x40 SWAP1 KECCAK256 PUSH1 0x1 ADD SLOAD PUSH2 0x530 DUP2 PUSH2 0x624 JUMP JUMPDEST PUSH2 0x435 DUP4 DUP4 PUSH2 0x6C2 JUMP JUMPDEST PUSH2 0x46E DUP4 DUP4 DUP4 PUSH1 0x1 PUSH2 0x79B JUMP JUMPDEST PUSH1 0x1 PUSH1 0x1 PUSH1 0xA0 SHL SUB DUP4 DUP2 AND PUSH1 0x0 SWAP1 DUP2 MSTORE PUSH1 0x1 PUSH1 0x20 SWAP1 DUP2 MSTORE PUSH1 0x40 DUP1 DUP4 KECCAK256 SWAP4 DUP7 AND DUP4 MSTORE SWAP3 SWAP1 MSTORE KECCAK256 SLOAD PUSH1 0x0 NOT DUP2 LT ISZERO PUSH2 0x435 JUMPI DUP2 DUP2 LT ISZERO PUSH2 0x5B6 JUMPI PUSH1 0x40 MLOAD PUSH4 0x7DC7A0D9 PUSH1 0xE1 SHL DUP2 MSTORE PUSH1 0x1 PUSH1 0x1 PUSH1 0xA0 SHL SUB DUP5 AND PUSH1 0x4 DUP3 ADD MSTORE PUSH1 0x24 DUP2 ADD DUP3 SWAP1 MSTORE PUSH1 0x44 DUP2 ADD DUP4 SWAP1 MSTORE PUSH1 0x64 ADD JUMPDEST PUSH1 0x40 MLOAD DUP1 SWAP2 SUB SWAP1 REVERT JUMPDEST PUSH2 0x435 DUP5 DUP5 DUP5 DUP5 SUB PUSH1 0x0 PUSH2 0x79B JUMP JUMPDEST PUSH1 0x1 PUSH1 0x1 PUSH1 0xA0 SHL SUB DUP4 AND PUSH2 0x5EF JUMPI PUSH1 0x40 MLOAD PUSH4 0x4B637E8F PUSH1 0xE1 SHL DUP2 MSTORE PUSH1 0x0 PUSH1 0x4 DUP3 ADD MSTORE PUSH1 0x24 ADD PUSH2 0x5AD JUMP JUMPDEST PUSH1 0x1 PUSH1 0x1 PUSH1 0xA0 SHL SUB DUP3 AND PUSH2 0x619 JUMPI PUSH1 0x40 MLOAD PUSH4 0xEC442F05 PUSH1 0xE0 SHL DUP2 MSTORE PUSH1 0x0 PUSH1 0x4 DUP3 ADD MSTORE PUSH1 0x24 ADD PUSH2 0x5AD JUMP JUMPDEST PUSH2 0x46E DUP4 DUP4 DUP4 PUSH2 0x870 JUMP JUMPDEST PUSH2 0x4B1 DUP2 CALLER PUSH2 0x87B JUMP JUMPDEST PUSH1 0x0 PUSH2 0x63A DUP4 DUP4 PUSH2 0x4CD JUMP JUMPDEST PUSH2 0x6BA JUMPI PUSH1 0x0 DUP4 DUP2 MSTORE PUSH1 0x5 PUSH1 0x20 SWAP1 DUP2 MSTORE PUSH1 0x40 DUP1 DUP4 KECCAK256 PUSH1 0x1 PUSH1 0x1 PUSH1 0xA0 SHL SUB DUP7 AND DUP5 MSTORE SWAP1 SWAP2 MSTORE SWAP1 KECCAK256 DUP1 SLOAD PUSH1 0xFF NOT AND PUSH1 0x1 OR SWAP1 SSTORE PUSH2 0x672 CALLER SWAP1 JUMP JUMPDEST PUSH1 0x1 PUSH1 0x1 PUSH1 0xA0 SHL SUB AND DUP3 PUSH1 0x1 PUSH1 0x1 PUSH1 0xA0 SHL SUB AND DUP5 PUSH32 0x2F8788117E7EFF1D82E926EC794901D17C78024A50270940304540A733656F0D PUSH1 0x40 MLOAD PUSH1 0x40 MLOAD DUP1 SWAP2 SUB SWAP1 LOG4 POP PUSH1 0x1 PUSH2 0x33C JUMP JUMPDEST POP PUSH1 0x0 PUSH2 0x33C JUMP JUMPDEST PUSH1 0x0 PUSH2 0x6CE DUP4 DUP4 PUSH2 0x4CD JUMP JUMPDEST ISZERO PUSH2 0x6BA JUMPI PUSH1 0x0 DUP4 DUP2 MSTORE PUSH1 0x5 PUSH1 0x20 SWAP1 DUP2 MSTORE PUSH1 0x40 DUP1 DUP4 KECCAK256 PUSH1 0x1 PUSH1 0x1 PUSH1 0xA0 SHL SUB DUP7 AND DUP1 DUP6 MSTORE SWAP3 MSTORE DUP1 DUP4 KECCAK256 DUP1 SLOAD PUSH1 0xFF NOT AND SWAP1 SSTORE MLOAD CALLER SWAP3 DUP7 SWAP2 PUSH32 0xF6391F5C32D9C69D2A47EA670B442974B53935D1EDC7FD64EB21E047A839171B SWAP2 SWAP1 LOG4 POP PUSH1 0x1 PUSH2 0x33C JUMP JUMPDEST PUSH1 0x1 PUSH1 0x1 PUSH1 0xA0 SHL SUB DUP3 AND PUSH2 0x759 JUMPI PUSH1 0x40 MLOAD PUSH4 0xEC442F05 PUSH1 0xE0 SHL DUP2 MSTORE PUSH1 0x0 PUSH1 0x4 DUP3 ADD MSTORE PUSH1 0x24 ADD PUSH2 0x5AD JUMP JUMPDEST PUSH2 0x4C9 PUSH1 0x0 DUP4 DUP4 PUSH2 0x870 JUMP JUMPDEST PUSH1 0x1 PUSH1 0x1 PUSH1 0xA0 SHL SUB DUP3 AND PUSH2 0x78F JUMPI PUSH1 0x40 MLOAD PUSH4 0x4B637E8F PUSH1 0xE1 SHL DUP2 MSTORE PUSH1 0x0 PUSH1 0x4 DUP3 ADD MSTORE PUSH1 0x24 ADD PUSH2 0x5AD JUMP JUMPDEST PUSH2 0x4C9 DUP3 PUSH1 0x0 DUP4 PUSH2 0x870 JUMP JUMPDEST PUSH1 0x1 PUSH1 0x1 PUSH1 0xA0 SHL SUB DUP5 AND PUSH2 0x7C5 JUMPI PUSH1 0x40 MLOAD PUSH4 0xE602DF05 PUSH1 0xE0 SHL DUP2 MSTORE PUSH1 0x0 PUSH1 0x4 DUP3 ADD MSTORE PUSH1 0x24 ADD PUSH2 0x5AD JUMP JUMPDEST PUSH1 0x1 PUSH1 0x1 PUSH1 0xA0 SHL SUB DUP4 AND PUSH2 0x7EF JUMPI PUSH1 0x40 MLOAD PUSH4 0x4A1406B1 PUSH1 0xE1 SHL DUP2 MSTORE PUSH1 0x0 PUSH1 0x4 DUP3 ADD MSTORE PUSH1 0x24 ADD PUSH2 0x5AD JUMP JUMPDEST PUSH1 0x1 PUSH1 0x1 PUSH1 0xA0 SHL SUB DUP1 DUP6 AND PUSH1 0x0 SWAP1 DUP2 MSTORE PUSH1 0x1 PUSH1 0x20 SWAP1 DUP2 MSTORE PUSH1 0x40 DUP1 DUP4 KECCAK256 SWAP4 DUP8 AND DUP4 MSTORE SWAP3 SWAP1 MSTORE KECCAK256 DUP3 SWAP1 SSTORE DUP1 ISZERO PUSH2 0x435 JUMPI DUP3 PUSH1 0x1 PUSH1 0x1 PUSH1 0xA0 SHL SUB AND DUP5 PUSH1 0x1 PUSH1 0x1 PUSH1 0xA0 SHL SUB AND PUSH32 0x8C5BE1E5EBEC7D5BD14F71427D1E84F3DD0314C0F7B2291E5B200AC8C7C3B925 DUP5 PUSH1 0x40 MLOAD PUSH2 0x862 SWAP2 DUP2 MSTORE PUSH1 0x20 ADD SWAP1 JUMP JUMPDEST PUSH1 0x40 MLOAD DUP1 SWAP2 SUB SWAP1 LOG3 POP POP POP POP JUMP JUMPDEST PUSH2 0x46E DUP4 DUP4 DUP4 PUSH2 0x8B4 JUMP JUMPDEST PUSH2 0x885 DUP3 DUP3 PUSH2 0x4CD JUMP JUMPDEST PUSH2 0x4C9 JUMPI PUSH1 0x40 MLOAD PUSH4 0xE2517D3F PUSH1 0xE0 SHL DUP2 MSTORE PUSH1 0x1 PUSH1 0x1 PUSH1 0xA0 SHL SUB DUP3 AND PUSH1 0x4 DUP3 ADD MSTORE PUSH1 0x24 DUP2 ADD DUP4 SWAP1 MSTORE PUSH1 0x44 ADD PUSH2 0x5AD JUMP JUMPDEST PUSH1 0x1 PUSH1 0x1 PUSH1 0xA0 SHL SUB DUP4 AND PUSH2 0x8DF JUMPI DUP1 PUSH1 0x2 PUSH1 0x0 DUP3 DUP3 SLOAD PUSH2 0x8D4 SWAP2 SWAP1 PUSH2 0xBA3 JUMP JUMPDEST SWAP1 SWAP2 SSTORE POP PUSH2 0x951 SWAP1 POP JUMP JUMPDEST PUSH1 0x1 PUSH1 0x1 PUSH1 0xA0 SHL SUB DUP4 AND PUSH1 0x0 SWAP1 DUP2 MSTORE PUSH1 0x20 DUP2 SWAP1 MSTORE PUSH1 0x40 SWAP1 KECCAK256 SLOAD DUP2 DUP2 LT ISZERO PUSH2 0x932 JUMPI PUSH1 0x40 MLOAD PUSH4 0x391434E3 PUSH1 0xE2 SHL DUP2 MSTORE PUSH1 0x1 PUSH1 0x1 PUSH1 0xA0 SHL SUB DUP6 AND PUSH1 0x4 DUP3 ADD MSTORE PUSH1 0x24 DUP2 ADD DUP3 SWAP1 MSTORE PUSH1 0x44 DUP2 ADD DUP4 SWAP1 MSTORE PUSH1 0x64 ADD PUSH2 0x5AD JUMP JUMPDEST PUSH1 0x1 PUSH1 0x1 PUSH1 0xA0 SHL SUB DUP5 AND PUSH1 0x0 SWAP1 DUP2 MSTORE PUSH1 0x20 DUP2 SWAP1 MSTORE PUSH1 0x40 SWAP1 KECCAK256 SWAP1 DUP3 SWAP1 SUB SWAP1 SSTORE JUMPDEST PUSH1 0x1 PUSH1 0x1 PUSH1 0xA0 SHL SUB DUP3 AND PUSH2 0x96D JUMPI PUSH1 0x2 DUP1 SLOAD DUP3 SWAP1 SUB SWAP1 SSTORE PUSH2 0x98C JUMP JUMPDEST PUSH1 0x1 PUSH1 0x1 PUSH1 0xA0 SHL SUB DUP3 AND PUSH1 0x0 SWAP1 DUP2 MSTORE PUSH1 0x20 DUP2 SWAP1 MSTORE PUSH1 0x40 SWAP1 KECCAK256 DUP1 SLOAD DUP3 ADD SWAP1 SSTORE JUMPDEST DUP2 PUSH1 0x1 PUSH1 0x1 PUSH1 0xA0 SHL SUB AND DUP4 PUSH1 0x1 PUSH1 0x1 PUSH1 0xA0 SHL SUB AND PUSH32 0xDDF252AD1BE2C89B69C2B068FC378DAA952BA7F163C4A11628F55A4DF523B3EF DUP4 PUSH1 0x40 MLOAD PUSH2 0x9D1 SWAP2 DUP2 MSTORE PUSH1 0x20 ADD SWAP1 JUMP JUMPDEST PUSH1 0x40 MLOAD DUP1 SWAP2 SUB SWAP1 LOG3 POP POP POP JUMP JUMPDEST PUSH1 0x0 PUSH1 0x20 DUP3 DUP5 SUB SLT ISZERO PUSH2 0x9F0 JUMPI PUSH1 0x0 DUP1 REVERT JUMPDEST DUP2 CALLDATALOAD PUSH1 0x1 PUSH1 0x1 PUSH1 0xE0 SHL SUB NOT DUP2 AND DUP2 EQ PUSH2 0xA08 JUMPI PUSH1 0x0 DUP1 REVERT JUMPDEST SWAP4 SWAP3 POP POP POP JUMP JUMPDEST PUSH1 0x0 PUSH1 0x20 DUP1 DUP4 MSTORE DUP4 MLOAD DUP1 DUP3 DUP6 ADD MSTORE PUSH1 0x0 JUMPDEST DUP2 DUP2 LT ISZERO PUSH2 0xA3C JUMPI DUP6 DUP2 ADD DUP4 ADD MLOAD DUP6 DUP3 ADD PUSH1 0x40 ADD MSTORE DUP3 ADD PUSH2 0xA20 JUMP JUMPDEST POP PUSH1 0x0 PUSH1 0x40 DUP3 DUP7 ADD ADD MSTORE PUSH1 0x40 PUSH1 0x1F NOT PUSH1 0x1F DUP4 ADD AND DUP6 ADD ADD SWAP3 POP POP POP SWAP3 SWAP2 POP POP JUMP JUMPDEST DUP1 CALLDATALOAD PUSH1 0x1 PUSH1 0x1 PUSH1 0xA0 SHL SUB DUP2 AND DUP2 EQ PUSH2 0xA74 JUMPI PUSH1 0x0 DUP1 REVERT JUMPDEST SWAP2 SWAP1 POP JUMP JUMPDEST PUSH1 0x0 DUP1 PUSH1 0x40 DUP4 DUP6 SUB SLT ISZERO PUSH2 0xA8C JUMPI PUSH1 0x0 DUP1 REVERT JUMPDEST PUSH2 0xA95 DUP4 PUSH2 0xA5D JUMP JUMPDEST SWAP5 PUSH1 0x20 SWAP4 SWAP1 SWAP4 ADD CALLDATALOAD SWAP4 POP POP POP JUMP JUMPDEST PUSH1 0x0 DUP1 PUSH1 0x0 PUSH1 0x60 DUP5 DUP7 SUB SLT ISZERO PUSH2 0xAB8 JUMPI PUSH1 0x0 DUP1 REVERT JUMPDEST PUSH2 0xAC1 DUP5 PUSH2 0xA5D JUMP JUMPDEST SWAP3 POP PUSH2 0xACF PUSH1 0x20 DUP6 ADD PUSH2 0xA5D JUMP JUMPDEST SWAP2 POP PUSH1 0x40 DUP5 ADD CALLDATALOAD SWAP1 POP SWAP3 POP SWAP3 POP SWAP3 JUMP JUMPDEST PUSH1 0x0 PUSH1 0x20 DUP3 DUP5 SUB SLT ISZERO PUSH2 0xAF1 JUMPI PUSH1 0x0 DUP1 REVERT JUMPDEST POP CALLDATALOAD SWAP2 SWAP1 POP JUMP JUMPDEST PUSH1 0x0 DUP1 PUSH1 0x40 DUP4 DUP6 SUB SLT ISZERO PUSH2 0xB0B JUMPI PUSH1 0x0 DUP1 REVERT JUMPDEST DUP3 CALLDATALOAD SWAP2 POP PUSH2 0xB1B PUSH1 0x20 DUP5 ADD PUSH2 0xA5D JUMP JUMPDEST SWAP1 POP SWAP3 POP SWAP3 SWAP1 POP JUMP JUMPDEST PUSH1 0x0 PUSH1 0x20 DUP3 DUP5 SUB SLT ISZERO PUSH2 0xB36 JUMPI PUSH1 0x0 DUP1 REVERT JUMPDEST PUSH2 0xA08 DUP3 PUSH2 0xA5D JUMP JUMPDEST PUSH1 0x0 DUP1 PUSH1 0x40 DUP4 DUP6 SUB SLT ISZERO PUSH2 0xB52 JUMPI PUSH1 0x0 DUP1 REVERT JUMPDEST PUSH2 0xB5B DUP4 PUSH2 0xA5D JUMP JUMPDEST SWAP2 POP PUSH2 0xB1B PUSH1 0x20 DUP5 ADD PUSH2 0xA5D JUMP JUMPDEST PUSH1 0x1 DUP2 DUP2 SHR SWAP1 DUP3 AND DUP1 PUSH2 0xB7D JUMPI PUSH1 0x7F DUP3 AND SWAP2 POP JUMPDEST PUSH1 0x20 DUP3 LT DUP2 SUB PUSH2 0xB9D JUMPI PUSH4 0x4E487B71 PUSH1 0xE0 SHL PUSH1 0x0 MSTORE PUSH1 0x22 PUSH1 0x4 MSTORE PUSH1 0x24 PUSH1 0x0 REVERT JUMPDEST POP SWAP2 SWAP1 POP JUMP JUMPDEST DUP1 DUP3 ADD DUP1 DUP3 GT ISZERO PUSH2 0x33C JUMPI PUSH4 0x4E487B71 PUSH1 0xE0 SHL PUSH1 0x0 MSTORE PUSH1 0x11 PUSH1 0x4 MSTORE PUSH1 0x24 PUSH1 0x0 REVERT INVALID LOG2 PUSH5 0x6970667358 0x22 SLT KECCAK256 STOP BALANCE 0xEC DUP16 SWAP9 EXP 0xD2 0xAD 0xBC PUSH16 0x3D3419EEE2370BF38AE5C01BA96719D8 0xE2 PUSH16 0x1F7BD68664736F6C6343000814003300 "},"gasEstimates":{"creation":{"codeDepositCost":"613200","executionCost":"infinite","totalCost":"infinite"},"external":{"DEFAULT_ADMIN_ROLE()":"217","MINTER_ROLE()":"261","allowance(address,address)":"infinite","approve(address,uint256)":"24769","balanceOf(address)":"2585","burn(uint256)":"50983","burnFrom(address,uint256)":"infinite","decimals()":"244","getRoleAdmin(bytes32)":"2467","grantRole(bytes32,address)":"infinite","hasRole(bytes32,address)":"2743","mint(address,uint256)":"infinite","name()":"infinite","renounceRole(bytes32,address)":"29118","revokeRole(bytes32,address)":"infinite","supportsInterface(bytes4)":"450","symbol()":"infinite","totalSupply()":"2371","transfer(address,uint256)":"infinite","transferFrom(address,address,uint256)":"infinite"},"internal":{"_update(address,address,uint256)":"infinite"}},"methodIdentifiers":{"DEFAULT_ADMIN_ROLE()":"a217fddf","MINTER_ROLE()":"d5391393","allowance(address,address)":"dd62ed3e","approve(address,uint256)":"095ea7b3","balanceOf(address)":"70a08231","burn(uint256)":"42966c68","burnFrom(address,uint256)":"79cc6790","decimals()":"313ce567","getRoleAdmin(bytes32)":"248a9ca3","grantRole(bytes32,address)":"2f2ff15d","hasRole(bytes32,address)":"91d14854","mint(address,uint256)":"40c10f19","name()":"06fdde03","renounceRole(bytes32,address)":"36568abe","revokeRole(bytes32,address)":"d547741f","supportsInterface(bytes4)":"01ffc9a7","symbol()":"95d89b41","totalSupply()":"18160ddd","transfer(address,uint256)":"a9059cbb","transferFrom(address,address,uint256)":"23b872dd"}},"storageLayout":{"storage":[{"astId":539,"contract":"contracts/EmergencyReliefStablecoin.sol:EmergencyReliefStablecoin","label":"_balances","offset":0,"slot":"0","type":"t_mapping(t_address,t_uint256)"},{"astId":545,"contract":"contracts/EmergencyReliefStablecoin.sol:EmergencyReliefStablecoin","label":"_allowances","offset":0,"slot":"1","type":"t_mapping(t_address,t_mapping(t_address,t_uint256))"},{"astId":547,"contract":"contracts/EmergencyReliefStablecoin.sol:EmergencyReliefStablecoin","label":"_totalSupply","offset":0,"slot":"2","type":"t_uint256"},{"astId":549,"contract":"contracts/EmergencyReliefStablecoin.sol:EmergencyReliefStablecoin","label":"_name","offset":0,"slot":"3","type":"t_string_storage"},{"astId":551,"contract":"contracts/EmergencyReliefStablecoin.sol:EmergencyReliefStablecoin","label":"_symbol","offset":0,"slot":"4","type":"t_string_storage"},{"astId":27,"contract":"contracts/EmergencyReliefStablecoin.sol:EmergencyReliefStablecoin","label":"_roles","offset":0,"slot":"5","type":"t_mapping(t_bytes32,t_struct(RoleData)22_storage)"}],"types":{"t_address":{"encoding":"inplace","label":"address","numberOfBytes":"20"},"t_bool":{"encoding":"inplace","label":"bool","numberOfBytes":"1"},"t_bytes32":{"encoding":"inplace","label":"bytes32","numberOfBytes":"32"},"t_mapping(t_address,t_bool)":{"encoding":"mapping","key":"t_address","label":"mapping(address => bool)","numberOfBytes":"32","value":"t_bool"},"t_mapping(t_address,t_mapping(t_address,t_uint256))":{"encoding":"mapping","key":"t_address","label":"mapping(address => mapping(address => uint256))","numberOfBytes":"32","value":"t_mapping(t_address,t_uint256)"},"t_mapping(t_address,t_uint256)":{"encoding":"mapping","key":"t_address","label":"mapping(address => uint256)","numberOfBytes":"32","value":"t_uint256"},"t_mapping(t_bytes32,t_struct(RoleData)22_storage)":{"encoding":"mapping","key":"t_bytes32","label":"mapping(bytes32 => struct AccessControl.RoleData)","numberOfBytes":"32","value":"t_struct(RoleData)22_storage"},"t_string_storage":{"encoding":"bytes","label":"string","numberOfBytes":"32"},"t_struct(RoleData)22_storage":{"encoding":"inplace","label":"struct AccessControl.RoleData","members":[{"astId":19,"contract":"contracts/EmergencyReliefStablecoin.sol:EmergencyReliefStablecoin","label":"hasRole","offset":0,"slot":"0","type":"t_mapping(t_address,t_bool)"},{"astId":21,"contract":"contracts/EmergencyReliefStablecoin.sol:EmergencyReliefStablecoin","label":"adminRole","offset":0,"slot":"1","type":"t_bytes32"}],"numberOfBytes":"64"},"t_uint256":{"encoding":"inplace","label":"uint256","numberOfBytes":"32"}}},"userdoc":{"kind":"user","methods":{},"version":1}}}}