{
  "_format": "hh-sol-artifact-1",
  "contractName": "EmergencyReliefManager",
  "sourceName": "contracts/EmergencyReliefManager.sol",
  "abi": [
    {
      "inputs": [
        {
          "internalType": "address",
          "name": "_reliefTokenAddress",
          "type": "address"
        }
      ],
      "stateMutability": "nonpayable",
      "type": "constructor"
    },
    {
      "inputs": [],
      "name": "AccessControlBadConfirmation",
      "type": "error"
    },
    {
      "inputs": [
        {
          "internalType": "address",
          "name": "account",
          "type": "address"
        },
        {
          "internalType": "bytes32",
          "name": "neededRole",
          "type": "bytes32"
        }
      ],
      "name": "AccessControlUnauthorizedAccount",
      "type": "error"
    },
    {
      "inputs": [],
      "name": "ReentrancyGuardReentrantCall",
      "type": "error"
    },
    {
      "anonymous": false,
      "inputs": [
        {
          "indexed": true,
          "internalType": "uint256",
          "name": "beneficiaryId",
          "type": "uint256"
        },
        {
          "indexed": true,
          "internalType": "address",
          "name": "walletAddress",
          "type": "address"
        },
        {
          "indexed": true,
          "internalType": "uint256",
          "name": "eventId",
          "type": "uint256"
        }
      ],
      "name": "BeneficiaryAdded",
      "type": "event"
    },
    {
      "anonymous": false,
      "inputs": [
        {
          "indexed": true,
          "internalType": "uint256",
          "name": "eventId",
          "type": "uint256"
        },
        {
          "indexed": false,
          "internalType": "string",
          "name": "name",
          "type": "string"
        },
        {
          "indexed": true,
          "internalType": "address",
          "name": "createdBy",
          "type": "address"
        }
      ],
      "name": "DisasterEventCreated",
      "type": "event"
    },
    {
      "anonymous": false,
      "inputs": [
        {
          "indexed": true,
          "internalType": "uint256",
          "name": "allocationId",
          "type": "uint256"
        },
        {
          "indexed": true,
          "internalType": "uint256",
          "name": "eventId",
          "type": "uint256"
        },
        {
          "indexed": true,
          "internalType": "address",
          "name": "beneficiaryAddress",
          "type": "address"
        },
        {
          "indexed": false,
          "internalType": "uint256",
          "name": "amount",
          "type": "uint256"
        }
      ],
      "name": "FundsAllocated",
      "type": "event"
    },
    {
      "anonymous": false,
      "inputs": [
        {
          "indexed": true,
          "internalType": "uint256",
          "name": "allocationId",
          "type": "uint256"
        },
        {
          "indexed": true,
          "internalType": "address",
          "name": "beneficiaryAddress",
          "type": "address"
        },
        {
          "indexed": false,
          "internalType": "uint256",
          "name": "amount",
          "type": "uint256"
        }
      ],
      "name": "FundsReleased",
      "type": "event"
    },
    {
      "anonymous": false,
      "inputs": [
        {
          "indexed": true,
          "internalType": "bytes32",
          "name": "role",
          "type": "bytes32"
        },
        {
          "indexed": true,
          "internalType": "bytes32",
          "name": "previousAdminRole",
          "type": "bytes32"
        },
        {
          "indexed": true,
          "internalType": "bytes32",
          "name": "newAdminRole",
          "type": "bytes32"
        }
      ],
      "name": "RoleAdminChanged",
      "type": "event"
    },
    {
      "anonymous": false,
      "inputs": [
        {
          "indexed": true,
          "internalType": "bytes32",
          "name": "role",
          "type": "bytes32"
        },
        {
          "indexed": true,
          "internalType": "address",
          "name": "account",
          "type": "address"
        },
        {
          "indexed": true,
          "internalType": "address",
          "name": "sender",
          "type": "address"
        }
      ],
      "name": "RoleGranted",
      "type": "event"
    },
    {
      "anonymous": false,
      "inputs": [
        {
          "indexed": true,
          "internalType": "bytes32",
          "name": "role",
          "type": "bytes32"
        },
        {
          "indexed": true,
          "internalType": "address",
          "name": "account",
          "type": "address"
        },
        {
          "indexed": true,
          "internalType": "address",
          "name": "sender",
          "type": "address"
        }
      ],
      "name": "RoleRevoked",
      "type": "event"
    },
    {
      "anonymous": false,
      "inputs": [
        {
          "indexed": true,
          "internalType": "uint256",
          "name": "vendorId",
          "type": "uint256"
        },
        {
          "indexed": true,
          "internalType": "address",
          "name": "walletAddress",
          "type": "address"
        }
      ],
      "name": "VendorAdded",
      "type": "event"
    },
    {
      "inputs": [],
      "name": "ADMIN_ROLE",
      "outputs": [
        {
          "internalType": "bytes32",
          "name": "",
          "type": "bytes32"
        }
      ],
      "stateMutability": "view",
      "type": "function"
    },
    {
      "inputs": [],
      "name": "BENEFICIARY_ROLE",
      "outputs": [
        {
          "internalType": "bytes32",
          "name": "",
          "type": "bytes32"
        }
      ],
      "stateMutability": "view",
      "type": "function"
    },
    {
      "inputs": [],
      "name": "DEFAULT_ADMIN_ROLE",
      "outputs": [
        {
          "internalType": "bytes32",
          "name": "",
          "type": "bytes32"
        }
      ],
      "stateMutability": "view",
      "type": "function"
    },
    {
      "inputs": [],
      "name": "DONOR_ROLE",
      "outputs": [
        {
          "internalType": "bytes32",
          "name": "",
          "type": "bytes32"
        }
      ],
      "stateMutability": "view",
      "type": "function"
    },
    {
      "inputs": [],
      "name": "VENDOR_ROLE",
      "outputs": [
        {
          "internalType": "bytes32",
          "name": "",
          "type": "bytes32"
        }
      ],
      "stateMutability": "view",
      "type": "function"
    },
    {
      "inputs": [
        {
          "internalType": "address",
          "name": "walletAddress",
          "type": "address"
        },
        {
          "internalType": "uint256",
          "name": "eventId",
          "type": "uint256"
        }
      ],
      "name": "addBeneficiary",
      "outputs": [
        {
          "internalType": "uint256",
          "name": "",
          "type": "uint256"
        }
      ],
      "stateMutability": "nonpayable",
      "type": "function"
    },
    {
      "inputs": [
        {
          "internalType": "address",
          "name": "walletAddress",
          "type": "address"
        },
        {
          "internalType": "string",
          "name": "name",
          "type": "string"
        },
        {
          "internalType": "string",
          "name": "services",
          "type": "string"
        }
      ],
      "name": "addVendor",
      "outputs": [
        {
          "internalType": "uint256",
          "name": "",
          "type": "uint256"
        }
      ],
      "stateMutability": "nonpayable",
      "type": "function"
    },
    {
      "inputs": [
        {
          "internalType": "uint256",
          "name": "eventId",
          "type": "uint256"
        },
        {
          "internalType": "address",
          "name": "beneficiaryAddress",
          "type": "address"
        },
        {
          "internalType": "uint256",
          "name": "amount",
          "type": "uint256"
        }
      ],
      "name": "allocateFunds",
      "outputs": [
        {
          "internalType": "uint256",
          "name": "",
          "type": "uint256"
        }
      ],
      "stateMutability": "nonpayable",
      "type": "function"
    },
    {
      "inputs": [],
      "name": "allocationCount",
      "outputs": [
        {
          "internalType": "uint256",
          "name": "",
          "type": "uint256"
        }
      ],
      "stateMutability": "view",
      "type": "function"
    },
    {
      "inputs": [
        {
          "internalType": "uint256",
          "name": "",
          "type": "uint256"
        }
      ],
      "name": "allocations",
      "outputs": [
        {
          "internalType": "uint256",
          "name": "id",
          "type": "uint256"
        },
        {
          "internalType": "uint256",
          "name": "eventId",
          "type": "uint256"
        },
        {
          "internalType": "address",
          "name": "beneficiaryAddress",
          "type": "address"
        },
        {
          "internalType": "uint256",
          "name": "amount",
          "type": "uint256"
        },
        {
          "internalType": "bool",
          "name": "released",
          "type": "bool"
        },
        {
          "internalType": "uint256",
          "name": "createdAt",
          "type": "uint256"
        }
      ],
      "stateMutability": "view",
      "type": "function"
    },
    {
      "inputs": [
        {
          "internalType": "uint256",
          "name": "",
          "type": "uint256"
        },
        {
          "internalType": "uint256",
          "name": "",
          "type": "uint256"
        }
      ],
      "name": "allocationsByEvent",
      "outputs": [
        {
          "internalType": "uint256",
          "name": "",
          "type": "uint256"
        }
      ],
      "stateMutability": "view",
      "type": "function"
    },
    {
      "inputs": [
        {
          "internalType": "uint256",
          "name": "",
          "type": "uint256"
        }
      ],
      "name": "beneficiaries",
      "outputs": [
        {
          "internalType": "uint256",
          "name": "id",
          "type": "uint256"
        },
        {
          "internalType": "address",
          "name": "walletAddress",
          "type": "address"
        },
        {
          "internalType": "uint256",
          "name": "eventId",
          "type": "uint256"
        },
        {
          "internalType": "bool",
          "name": "approved",
          "type": "bool"
        },
        {
          "internalType": "uint256",
          "name": "allocatedAmount",
          "type": "uint256"
        },
        {
          "internalType": "uint256",
          "name": "receivedAmount",
          "type": "uint256"
        },
        {
          "internalType": "bool",
          "name": "active",
          "type": "bool"
        }
      ],
      "stateMutability": "view",
      "type": "function"
    },
    {
      "inputs": [],
      "name": "beneficiaryCount",
      "outputs": [
        {
          "internalType": "uint256",
          "name": "",
          "type": "uint256"
        }
      ],
      "stateMutability": "view",
      "type": "function"
    },
    {
      "inputs": [
        {
          "internalType": "address",
          "name": "",
          "type": "address"
        },
        {
          "internalType": "uint256",
          "name": "",
          "type": "uint256"
        }
      ],
      "name": "beneficiaryIdsByAddress",
      "outputs": [
        {
          "internalType": "uint256",
          "name": "",
          "type": "uint256"
        }
      ],
      "stateMutability": "view",
      "type": "function"
    },
    {
      "inputs": [
        {
          "internalType": "string",
          "name": "name",
          "type": "string"
        },
        {
          "internalType": "string",
          "name": "description",
          "type": "string"
        }
      ],
      "name": "createDisasterEvent",
      "outputs": [
        {
          "internalType": "uint256",
          "name": "",
          "type": "uint256"
        }
      ],
      "stateMutability": "nonpayable",
      "type": "function"
    },
    {
      "inputs": [],
      "name": "disasterEventCount",
      "outputs": [
        {
          "internalType": "uint256",
          "name": "",
          "type": "uint256"
        }
      ],
      "stateMutability": "view",
      "type": "function"
    },
    {
      "inputs": [
        {
          "internalType": "uint256",
          "name": "",
          "type": "uint256"
        }
      ],
      "name": "disasterEvents",
      "outputs": [
        {
          "internalType": "uint256",
          "name": "id",
          "type": "uint256"
        },
        {
          "internalType": "string",
          "name": "name",
          "type": "string"
        },
        {
          "internalType": "string",
          "name": "description",
          "type": "string"
        },
        {
          "internalType": "uint256",
          "name": "totalFunds",
          "type": "uint256"
        },
        {
          "internalType": "uint256",
          "name": "allocatedFunds",
          "type": "uint256"
        },
        {
          "internalType": "bool",
          "name": "active",
          "type": "bool"
        },
        {
          "internalType": "address",
          "name": "createdBy",
          "type": "address"
        },
        {
          "internalType": "uint256",
          "name": "createdAt",
          "type": "uint256"
        }
      ],
      "stateMutability": "view",
      "type": "function"
    },
    {
      "inputs": [
        {
          "internalType": "uint256",
          "name": "allocationId",
          "type": "uint256"
        }
      ],
      "name": "getAllocation",
      "outputs": [
        {
          "components": [
            {
              "internalType": "uint256",
              "name": "id",
              "type": "uint256"
            },
            {
              "internalType": "uint256",
              "name": "eventId",
              "type": "uint256"
            },
            {
              "internalType": "address",
              "name": "beneficiaryAddress",
              "type": "address"
            },
            {
              "internalType": "uint256",
              "name": "amount",
              "type": "uint256"
            },
            {
              "internalType": "bool",
              "name": "released",
              "type": "bool"
            },
            {
              "internalType": "uint256",
              "name": "createdAt",
              "type": "uint256"
            }
          ],
          "internalType": "struct EmergencyReliefManager.Allocation",
          "name": "",
          "type": "tuple"
        }
      ],
      "stateMutability": "view",
      "type": "function"
    },
    {
      "inputs": [
        {
          "internalType": "uint256",
          "name": "eventId",
          "type": "uint256"
        }
      ],
      "name": "getAllocationsByEvent",
      "outputs": [
        {
          "internalType": "uint256[]",
          "name": "",
          "type": "uint256[]"
        }
      ],
      "stateMutability": "view",
      "type": "function"
    },
    {
      "inputs": [
        {
          "internalType": "uint256",
          "name": "beneficiaryId",
          "type": "uint256"
        }
      ],
      "name": "getBeneficiary",
      "outputs": [
        {
          "components": [
            {
              "internalType": "uint256",
              "name": "id",
              "type": "uint256"
            },
            {
              "internalType": "address",
              "name": "walletAddress",
              "type": "address"
            },
            {
              "internalType": "uint256",
              "name": "eventId",
              "type": "uint256"
            },
            {
              "internalType": "bool",
              "name": "approved",
              "type": "bool"
            },
            {
              "internalType": "uint256",
              "name": "allocatedAmount",
              "type": "uint256"
            },
            {
              "internalType": "uint256",
              "name": "receivedAmount",
              "type": "uint256"
            },
            {
              "internalType": "bool",
              "name": "active",
              "type": "bool"
            }
          ],
          "internalType": "struct EmergencyReliefManager.Beneficiary",
          "name": "",
          "type": "tuple"
        }
      ],
      "stateMutability": "view",
      "type": "function"
    },
    {
      "inputs": [
        {
          "internalType": "address",
          "name": "addr",
          "type": "address"
        }
      ],
      "name": "getBeneficiaryIdsByAddress",
      "outputs": [
        {
          "internalType": "uint256[]",
          "name": "",
          "type": "uint256[]"
        }
      ],
      "stateMutability": "view",
      "type": "function"
    },
    {
      "inputs": [
        {
          "internalType": "uint256",
          "name": "eventId",
          "type": "uint256"
        }
      ],
      "name": "getDisasterEvent",
      "outputs": [
        {
          "components": [
            {
              "internalType": "uint256",
              "name": "id",
              "type": "uint256"
            },
            {
              "internalType": "string",
              "name": "name",
              "type": "string"
            },
            {
              "internalType": "string",
              "name": "description",
              "type": "string"
            },
            {
              "internalType": "uint256",
              "name": "totalFunds",
              "type": "uint256"
            },
            {
              "internalType": "uint256",
              "name": "allocatedFunds",
              "type": "uint256"
            },
            {
              "internalType": "bool",
              "name": "active",
              "type": "bool"
            },
            {
              "internalType": "address",
              "name": "createdBy",
              "type": "address"
            },
            {
              "internalType": "uint256",
              "name": "createdAt",
              "type": "uint256"
            }
          ],
          "internalType": "struct EmergencyReliefManager.DisasterEvent",
          "name": "",
          "type": "tuple"
        }
      ],
      "stateMutability": "view",
      "type": "function"
    },
    {
      "inputs": [
        {
          "internalType": "bytes32",
          "name": "role",
          "type": "bytes32"
        }
      ],
      "name": "getRoleAdmin",
      "outputs": [
        {
          "internalType": "bytes32",
          "name": "",
          "type": "bytes32"
        }
      ],
      "stateMutability": "view",
      "type": "function"
    },
    {
      "inputs": [
        {
          "internalType": "uint256",
          "name": "vendorId",
          "type": "uint256"
        }
      ],
      "name": "getVendor",
      "outputs": [
        {
          "components": [
            {
              "internalType": "uint256",
              "name": "id",
              "type": "uint256"
            },
            {
              "internalType": "address",
              "name": "walletAddress",
              "type": "address"
            },
            {
              "internalType": "string",
              "name": "name",
              "type": "string"
            },
            {
              "internalType": "string",
              "name": "services",
              "type": "string"
            },
            {
              "internalType": "bool",
              "name": "approved",
              "type": "bool"
            },
            {
              "internalType": "bool",
              "name": "active",
              "type": "bool"
            }
          ],
          "internalType": "struct EmergencyReliefManager.Vendor",
          "name": "",
          "type": "tuple"
        }
      ],
      "stateMutability": "view",
      "type": "function"
    },
    {
      "inputs": [
        {
          "internalType": "address",
          "name": "addr",
          "type": "address"
        }
      ],
      "name": "getVendorIdsByAddress",
      "outputs": [
        {
          "internalType": "uint256[]",
          "name": "",
          "type": "uint256[]"
        }
      ],
      "stateMutability": "view",
      "type": "function"
    },
    {
      "inputs": [
        {
          "internalType": "bytes32",
          "name": "role",
          "type": "bytes32"
        },
        {
          "internalType": "address",
          "name": "account",
          "type": "address"
        }
      ],
      "name": "grantRole",
      "outputs": [],
      "stateMutability": "nonpayable",
      "type": "function"
    },
    {
      "inputs": [
        {
          "internalType": "bytes32",
          "name": "role",
          "type": "bytes32"
        },
        {
          "internalType": "address",
          "name": "account",
          "type": "address"
        }
      ],
      "name": "hasRole",
      "outputs": [
        {
          "internalType": "bool",
          "name": "",
          "type": "bool"
        }
      ],
      "stateMutability": "view",
      "type": "function"
    },
    {
      "inputs": [
        {
          "internalType": "uint256",
          "name": "allocationId",
          "type": "uint256"
        }
      ],
      "name": "releaseFunds",
      "outputs": [
        {
          "internalType": "bool",
          "name": "",
          "type": "bool"
        }
      ],
      "stateMutability": "nonpayable",
      "type": "function"
    },
    {
      "inputs": [],
      "name": "reliefToken",
      "outputs": [
        {
          "internalType": "contract IERC20",
          "name": "",
          "type": "address"
        }
      ],
      "stateMutability": "view",
      "type": "function"
    },
    {
      "inputs": [
        {
          "internalType": "bytes32",
          "name": "role",
          "type": "bytes32"
        },
        {
          "internalType": "address",
          "name": "callerConfirmation",
          "type": "address"
        }
      ],
      "name": "renounceRole",
      "outputs": [],
      "stateMutability": "nonpayable",
      "type": "function"
    },
    {
      "inputs": [
        {
          "internalType": "bytes32",
          "name": "role",
          "type": "bytes32"
        },
        {
          "internalType": "address",
          "name": "account",
          "type": "address"
        }
      ],
      "name": "revokeRole",
      "outputs": [],
      "stateMutability": "nonpayable",
      "type": "function"
    },
    {
      "inputs": [
        {
          "internalType": "address",
          "name": "_reliefTokenAddress",
          "type": "address"
        }
      ],
      "name": "setReliefToken",
      "outputs": [],
      "stateMutability": "nonpayable",
      "type": "function"
    },
    {
      "inputs": [
        {
          "internalType": "bytes4",
          "name": "interfaceId",
          "type": "bytes4"
        }
      ],
      "name": "supportsInterface",
      "outputs": [
        {
          "internalType": "bool",
          "name": "",
          "type": "bool"
        }
      ],
      "stateMutability": "view",
      "type": "function"
    },
    {
      "inputs": [],
      "name": "vendorCount",
      "outputs": [
        {
          "internalType": "uint256",
          "name": "",
          "type": "uint256"
        }
      ],
      "stateMutability": "view",
      "type": "function"
    },
    {
      "inputs": [
        {
          "internalType": "address",
          "name": "",
          "type": "address"
        },
        {
          "internalType": "uint256",
          "name": "",
          "type": "uint256"
        }
      ],
      "name": "vendorIdsByAddress",
      "outputs": [
        {
          "internalType": "uint256",
          "name": "",
          "type": "uint256"
        }
      ],
      "stateMutability": "view",
      "type": "function"
    },
    {
      "inputs": [
        {
          "internalType": "uint256",
          "name": "",
          "type": "uint256"
        }
      ],
      "name": "vendors",
      "outputs": [
        {
          "internalType": "uint256",
          "name": "id",
          "type": "uint256"
        },
        {
          "internalType": "address",
          "name": "walletAddress",
          "type": "address"
        },
        {
          "internalType": "string",
          "name": "name",
          "type": "string"
        },
        {
          "internalType": "string",
          "name": "services",
          "type": "string"
        },
        {
          "internalType": "bool",
          "name": "approved",
          "type": "bool"
        },
        {
          "internalType": "bool",
          "name": "active",
          "type": "bool"
        }
      ],
      "stateMutability": "view",
      "type": "function"
    }
  ],
  "bytecode": "0x60806040523480156200001157600080fd5b506040516200255b3803806200255b833981016040819052620000349162000148565b600180556200004560003362000099565b50620000727fa49807205ce4d355092ef5a8a18f56e8913cf4a201fbe287825b095693c217753362000099565b50600280546001600160a01b0319166001600160a01b03929092169190911790556200017a565b6000828152602081815260408083206001600160a01b038516845290915281205460ff166200013e576000838152602081815260408083206001600160a01b03861684529091529020805460ff19166001179055620000f53390565b6001600160a01b0316826001600160a01b0316847f2f8788117e7eff1d82e926ec794901d17c78024a50270940304540a733656f0d60405160405180910390a450600162000142565b5060005b92915050565b6000602082840312156200015b57600080fd5b81516001600160a01b03811681146200017357600080fd5b9392505050565b6123d1806200018a6000396000f3fe608060405234801561001057600080fd5b506004361061021c5760003560e01c80638858287b11610125578063c1a6852c116100ad578063ced3a4031161007c578063ced3a4031461061d578063d547741f14610644578063dae6086814610657578063e7fb846a14610677578063efeb5e581461068a57600080fd5b8063c1a6852c146105d1578063c3e73359146105da578063c864be8a146105ed578063cd8227f91461061457600080fd5b80639ae293a4116100f45780639ae293a41461056b578063a08d986d1461057e578063a217fddf146105a3578063b32caa1d146105ab578063c0ff3018146105be57600080fd5b80638858287b1461051557806391d148541461051e578063926a694d1461053157806396074e701461055857600080fd5b80634c604484116101a857806365de1eb31161017757806365de1eb3146104b1578063734b2a7c146104d157806373f7e861146104da57806375b238fc146104ed5780637873be571461050257600080fd5b80634c604484146103fb5780634d68282f1461040e5780635024f381146104215780635a5804b31461044c57600080fd5b8063302df083116101ef578063302df0831461031d57806336568abe1461038e578063410c9957146103a157806343f4b703146103c85780634b794870146103db57600080fd5b806301ffc9a7146102215780630a2642bf14610249578063248a9ca3146102d75780632f2ff15d14610308575b600080fd5b61023461022f366004611c95565b610725565b60405190151581526020015b60405180910390f35b61029c610257366004611cc6565b600660205260009081526040902080546001820154600283015460038401546004850154600590950154939492936001600160a01b0390921692909160ff9091169086565b6040805196875260208701959095526001600160a01b03909316938501939093526060840152901515608083015260a082015260c001610240565b6102fa6102e5366004611cc6565b60009081526020819052604090206001015490565b604051908152602001610240565b61031b610316366004611cfb565b61075c565b005b61033061032b366004611cc6565b610787565b6040516102409190815181526020808301516001600160a01b031690820152604080830151908201526060808301511515908201526080808301519082015260a0808301519082015260c09182015115159181019190915260e00190565b61031b61039c366004611cfb565b610849565b6103b46103af366004611cc6565b610881565b604051610240989796959493929190611d6d565b6102fa6103d6366004611dd0565b6109e1565b6103ee6103e9366004611dfa565b610a12565b6040516102409190611e15565b6103ee610409366004611cc6565b610a7e565b61023461041c366004611cc6565b610ade565b600254610434906001600160a01b031681565b6040516001600160a01b039091168152602001610240565b61045f61045a366004611cc6565b610dab565b604051610240919081518152602080830151908201526040808301516001600160a01b0316908201526060808301519082015260808083015115159082015260a0918201519181019190915260c00190565b6104c46104bf366004611cc6565b610e56565b6040516102409190611e59565b6102fa600b5481565b6102fa6104e8366004611dd0565b611021565b6102fa60008051602061237c83398151915281565b6102fa610510366004611ed3565b61103d565b6102fa600c5481565b61023461052c366004611cfb565b6112af565b6102fa7fb66d507c1e3c1bc237b923feddf01f16873f6a23c218ec08d1c8983da3c5630981565b6102fa610566366004611dd0565b6112d8565b6103ee610579366004611dfa565b611467565b61059161058c366004611cc6565b6114d1565b60405161024096959493929190611f08565b6102fa600081565b6102fa6105b9366004612002565b611626565b61031b6105cc366004611dfa565b61177c565b6102fa600a5481565b6102fa6105e8366004612076565b6117aa565b6102fa7f7590f0264744cd50915976d360e18170bc29db6f1a196d3b1061f7f19405217081565b6102fa600d5481565b6102fa7fc8a41221bcd7fcf2c225f5a9265e1d4d39949d89197159d59e5f4b87b62c419e81565b61031b610652366004611cfb565b6118fb565b61066a610665366004611cc6565b611920565b60405161024091906120da565b6102fa610685366004612171565b611b08565b6106e6610698366004611cc6565b6004602081905260009182526040909120805460018201546002830154600384015494840154600585015460069095015493956001600160a01b0390931694919360ff938416939192911687565b604080519788526001600160a01b039096166020880152948601939093529015156060850152608084015260a0830152151560c082015260e001610240565b60006001600160e01b03198216637965db0b60e01b148061075657506301ffc9a760e01b6001600160e01b03198316145b92915050565b60008281526020819052604090206001015461077781611b24565b6107818383611b31565b50505050565b6107d46040518060e001604052806000815260200160006001600160a01b031681526020016000815260200160001515815260200160008152602001600081526020016000151581525090565b50600090815260046020818152604092839020835160e0810185528154815260018201546001600160a01b031692810192909252600281015493820193909352600383015460ff90811615156060830152918301546080820152600583015460a082015260069092015416151560c082015290565b6001600160a01b03811633146108725760405163334bd91960e11b815260040160405180910390fd5b61087c8282611bc3565b505050565b600360205260009081526040902080546001820180549192916108a390612193565b80601f01602080910402602001604051908101604052809291908181526020018280546108cf90612193565b801561091c5780601f106108f15761010080835404028352916020019161091c565b820191906000526020600020905b8154815290600101906020018083116108ff57829003601f168201915b50505050509080600201805461093190612193565b80601f016020809104026020016040519081016040528092919081815260200182805461095d90612193565b80156109aa5780601f1061097f576101008083540402835291602001916109aa565b820191906000526020600020905b81548152906001019060200180831161098d57829003601f168201915b505050506003830154600484015460058501546006909501549394919390925060ff82169161010090046001600160a01b03169088565b600860205281600052604060002081815481106109fd57600080fd5b90600052602060002001600091509150505481565b6001600160a01b038116600090815260076020908152604091829020805483518184028101840190945280845260609392830182828015610a7257602002820191906000526020600020905b815481526020019060010190808311610a5e575b50505050509050919050565b600081815260096020908152604091829020805483518184028101840190945280845260609392830182828015610a725760200282019190600052602060002090815481526020019060010190808311610a5e5750505050509050919050565b600060008051602061237c833981519152610af881611b24565b610b00611c2e565b6000838152600660205260409020600481015460ff1615610b615760405162461bcd60e51b8152602060048201526016602482015275119d5b991cc8185b1c9958591e481c995b19585cd95960521b60448201526064015b60405180910390fd5b6000816003015411610baa5760405162461bcd60e51b815260206004820152601260248201527124b73b30b634b21030b63637b1b0ba34b7b760711b6044820152606401610b58565b6002805490820154600383015460405163a9059cbb60e01b81526001600160a01b039283166004820152602481019190915291169063a9059cbb906044016020604051808303816000875af1158015610c07573d6000803e3d6000fd5b505050506040513d601f19601f82011682018060405250810190610c2b91906121c7565b610c695760405162461bcd60e51b815260206004820152600f60248201526e151c985b9cd9995c8819985a5b1959608a1b6044820152606401610b58565b60048101805460ff1916600117905560005b60028201546001600160a01b0316600090815260076020526040902054811015610d4b5760028201546001600160a01b03166000908152600760205260408120805483908110610ccd57610ccd6121e9565b6000918252602080832090910154600286015481845260049092526040909220600101549192506001600160a01b03908116911603610d3857600383015460008281526004602052604081206005018054909190610d2c908490612215565b90915550610d4b915050565b5080610d4381612228565b915050610c7b565b50600281015460038201546040519081526001600160a01b039091169085907f6e3c6096795c8298a218b2cfb8bde42726ff7c9a3d27b4d3ba41ab7f74feb5fb9060200160405180910390a36001925050610da560018055565b50919050565b610def6040518060c00160405280600081526020016000815260200160006001600160a01b0316815260200160008152602001600015158152602001600081525090565b50600090815260066020908152604091829020825160c0810184528154815260018201549281019290925260028101546001600160a01b03169282019290925260038201546060820152600482015460ff161515608082015260059091015460a082015290565b610e9c6040518060c001604052806000815260200160006001600160a01b0316815260200160608152602001606081526020016000151581526020016000151581525090565b600082815260056020908152604091829020825160c0810184528154815260018201546001600160a01b0316928101929092526002810180549293919291840191610ee690612193565b80601f0160208091040260200160405190810160405280929190818152602001828054610f1290612193565b8015610f5f5780601f10610f3457610100808354040283529160200191610f5f565b820191906000526020600020905b815481529060010190602001808311610f4257829003601f168201915b50505050508152602001600382018054610f7890612193565b80601f0160208091040260200160405190810160405280929190818152602001828054610fa490612193565b8015610ff15780601f10610fc657610100808354040283529160200191610ff1565b820191906000526020600020905b815481529060010190602001808311610fd457829003601f168201915b50505091835250506004919091015460ff8082161515602084015261010090910416151560409091015292915050565b600760205281600052604060002081815481106109fd57600080fd5b600060008051602061237c83398151915261105781611b24565b60008581526003602052604090206005015460ff166110b45760405162461bcd60e51b81526020600482015260196024820152784469736173746572206576656e74206e6f742061637469766560381b6044820152606401610b58565b6002546040516370a0823160e01b815230600482015284916001600160a01b0316906370a0823190602401602060405180830381865afa1580156110fc573d6000803e3d6000fd5b505050506040513d601f19601f820116820180604052508101906111209190612241565b101561116e5760405162461bcd60e51b815260206004820152601e60248201527f496e73756666696369656e742066756e647320696e20636f6e747261637400006044820152606401610b58565b600d805490600061117e83612228565b9091555050600d546040805160c08101825282815260208082018981526001600160a01b03898116848601908152606085018a81526000608087018181524260a089019081528a8352600688528983209851895595516001808a019190915593516002890180546001600160a01b0319169190961617909455905160038088019190915592516004808801805460ff19169215159290921790915593516005909601959095558b855260098452858520805491820181558552838520018690558a8452909152918120909101805486929061125a908490612215565b92505081905550846001600160a01b031686827f0451df7c98b036dea1aee6e4949bb05510926c9f60f5275e2e1183915f984f628760405161129e91815260200190565b60405180910390a495945050505050565b6000918252602082815260408084206001600160a01b0393909316845291905290205460ff1690565b600060008051602061237c8339815191526112f281611b24565b60008381526003602052604090206005015460ff1661134f5760405162461bcd60e51b81526020600482015260196024820152784469736173746572206576656e74206e6f742061637469766560381b6044820152606401610b58565b600b805490600061135f83612228565b9091555050600b546040805160e0810182528281526001600160a01b0380881660208084018281528486018a815260016060870181815260006080890181815260a08a0182815260c08b018581528d84526004808a528d85209c518d5597518c8701805491909c166001600160a01b031990911617909a55945160028b0155915160038a01805491151560ff19928316179055915194890194909455915160058801559451600690960180549615159690911695909517909455818452600781528484208054938401815584528320909101849055915186929184917f92fd1cf6fed7907a564ec000f260e731976d372859510555d34963d2d42578a79190a4949350505050565b6001600160a01b038116600090815260086020908152604091829020805483518184028101840190945280845260609392830182828015610a725760200282019190600052602060002090815481526020019060010190808311610a5e5750505050509050919050565b60056020526000908152604090208054600182015460028301805492936001600160a01b039092169261150390612193565b80601f016020809104026020016040519081016040528092919081815260200182805461152f90612193565b801561157c5780601f106115515761010080835404028352916020019161157c565b820191906000526020600020905b81548152906001019060200180831161155f57829003601f168201915b50505050509080600301805461159190612193565b80601f01602080910402602001604051908101604052809291908181526020018280546115bd90612193565b801561160a5780601f106115df5761010080835404028352916020019161160a565b820191906000526020600020905b8154815290600101906020018083116115ed57829003601f168201915b5050506004909301549192505060ff8082169161010090041686565b600060008051602061237c83398151915261164081611b24565b600c805490600061165083612228565b9091555050600c546040805160c0810182528281526001600160a01b0388811660208084019182528385018a8152606085018a905260016080860181905260a08601819052600088815260059093529590912084518155915194820180546001600160a01b0319169590931694909417909155915190919060028201906116d790826122a8565b50606082015160038201906116ec90826122a8565b5060808201516004909101805460a09093015115156101000261ff00199215159290921661ffff19909316929092171790556001600160a01b038616600081815260086020908152604080832080546001810182559084529183209091018490555183917fe7df11fc5bb9bef70a86134b3b5af13dd6e53d2de7c2a2968d3ff6aba0d7557791a395945050505050565b600061178781611b24565b50600280546001600160a01b0319166001600160a01b0392909216919091179055565b600060008051602061237c8339815191526117c481611b24565b600a80549060006117d483612228565b9091555050600a546040805161010081018252828152602080820188815282840188905260006060840181905260808401819052600160a085018190523360c08601524260e08601528682526003909352939093208251815592519192919082019061184090826122a8565b506040820151600282019061185590826122a8565b50606082015160038201556080820151600482015560a082015160058201805460c08501516001600160a01b031661010002610100600160a81b0319931515939093166001600160a81b03199091161791909117905560e090910151600690910155604051339082907fbd984a660363300d79ccbc620a14555c0cc2fd6d8752352de96bc8861b18e5ab906118eb908990612368565b60405180910390a3949350505050565b60008281526020819052604090206001015461191681611b24565b6107818383611bc3565b611973604051806101000160405280600081526020016060815260200160608152602001600081526020016000815260200160001515815260200160006001600160a01b03168152602001600081525090565b6003600083815260200190815260200160002060405180610100016040529081600082015481526020016001820180546119ac90612193565b80601f01602080910402602001604051908101604052809291908181526020018280546119d890612193565b8015611a255780601f106119fa57610100808354040283529160200191611a25565b820191906000526020600020905b815481529060010190602001808311611a0857829003601f168201915b50505050508152602001600282018054611a3e90612193565b80601f0160208091040260200160405190810160405280929190818152602001828054611a6a90612193565b8015611ab75780601f10611a8c57610100808354040283529160200191611ab7565b820191906000526020600020905b815481529060010190602001808311611a9a57829003601f168201915b50505091835250506003820154602082015260048201546040820152600582015460ff81161515606083015261010090046001600160a01b0316608082015260069091015460a09091015292915050565b600960205281600052604060002081815481106109fd57600080fd5b611b2e8133611c58565b50565b6000611b3d83836112af565b611bbb576000838152602081815260408083206001600160a01b03861684529091529020805460ff19166001179055611b733390565b6001600160a01b0316826001600160a01b0316847f2f8788117e7eff1d82e926ec794901d17c78024a50270940304540a733656f0d60405160405180910390a4506001610756565b506000610756565b6000611bcf83836112af565b15611bbb576000838152602081815260408083206001600160a01b0386168085529252808320805460ff1916905551339286917ff6391f5c32d9c69d2a47ea670b442974b53935d1edc7fd64eb21e047a839171b9190a4506001610756565b600260015403611c5157604051633ee5aeb560e01b815260040160405180910390fd5b6002600155565b611c6282826112af565b611c915760405163e2517d3f60e01b81526001600160a01b038216600482015260248101839052604401610b58565b5050565b600060208284031215611ca757600080fd5b81356001600160e01b031981168114611cbf57600080fd5b9392505050565b600060208284031215611cd857600080fd5b5035919050565b80356001600160a01b0381168114611cf657600080fd5b919050565b60008060408385031215611d0e57600080fd5b82359150611d1e60208401611cdf565b90509250929050565b6000815180845260005b81811015611d4d57602081850181015186830182015201611d31565b506000602082860101526020601f19601f83011685010191505092915050565b60006101008a8352806020840152611d878184018b611d27565b90508281036040840152611d9b818a611d27565b60608401989098525050608081019490945291151560a08401526001600160a01b031660c083015260e0909101529392505050565b60008060408385031215611de357600080fd5b611dec83611cdf565b946020939093013593505050565b600060208284031215611e0c57600080fd5b611cbf82611cdf565b6020808252825182820181905260009190848201906040850190845b81811015611e4d57835183529284019291840191600101611e31565b50909695505050505050565b602081528151602082015260018060a01b0360208301511660408201526000604083015160c06060840152611e9160e0840182611d27565b90506060840151601f19848303016080850152611eae8282611d27565b9150506080840151151560a084015260a0840151151560c08401528091505092915050565b600080600060608486031215611ee857600080fd5b83359250611ef860208501611cdf565b9150604084013590509250925092565b8681526001600160a01b038616602082015260c060408201819052600090611f3290830187611d27565b8281036060840152611f448187611d27565b9415156080840152505090151560a090910152949350505050565b634e487b7160e01b600052604160045260246000fd5b600082601f830112611f8657600080fd5b813567ffffffffffffffff80821115611fa157611fa1611f5f565b604051601f8301601f19908116603f01168101908282118183101715611fc957611fc9611f5f565b81604052838152866020858801011115611fe257600080fd5b836020870160208301376000602085830101528094505050505092915050565b60008060006060848603121561201757600080fd5b61202084611cdf565b9250602084013567ffffffffffffffff8082111561203d57600080fd5b61204987838801611f75565b9350604086013591508082111561205f57600080fd5b5061206c86828701611f75565b9150509250925092565b6000806040838503121561208957600080fd5b823567ffffffffffffffff808211156120a157600080fd5b6120ad86838701611f75565b935060208501359150808211156120c357600080fd5b506120d085828601611f75565b9150509250929050565b602081528151602082015260006020830151610100806040850152612103610120850183611d27565b91506040850151601f198584030160608601526121208382611d27565b92505060608501516080850152608085015160a085015260a0850151151560c085015260c085015161215d60e08601826001600160a01b03169052565b5060e0949094015192909301919091525090565b6000806040838503121561218457600080fd5b50508035926020909101359150565b600181811c908216806121a757607f821691505b602082108103610da557634e487b7160e01b600052602260045260246000fd5b6000602082840312156121d957600080fd5b81518015158114611cbf57600080fd5b634e487b7160e01b600052603260045260246000fd5b634e487b7160e01b600052601160045260246000fd5b80820180821115610756576107566121ff565b60006001820161223a5761223a6121ff565b5060010190565b60006020828403121561225357600080fd5b5051919050565b601f82111561087c57600081815260208120601f850160051c810160208610156122815750805b601f850160051c820191505b818110156122a05782815560010161228d565b505050505050565b815167ffffffffffffffff8111156122c2576122c2611f5f565b6122d6816122d08454612193565b8461225a565b602080601f83116001811461230b57600084156122f35750858301515b600019600386901b1c1916600185901b1785556122a0565b600085815260208120601f198616915b8281101561233a5788860151825594840194600190910190840161231b565b50858210156123585787850151600019600388901b60f8161c191681555b5050505050600190811b01905550565b602081526000611cbf6020830184611d2756fea49807205ce4d355092ef5a8a18f56e8913cf4a201fbe287825b095693c21775a26469706673582212209c6afefb77ce3fdb3af6b68992f09afa888619e86722f76d2f263313e9ed08b164736f6c63430008140033",
  "linkReferences": {},
  "deployedLinkReferences": {}
}